:100000000C94AD010C94F4010C94F4010C94F401E3
:100010000C94F4010C94F4010C94F4010C94F4018C
:100020000C94F4010C94F4010C9447150C94831473
:100030000C94D5080C94F4010C94F4010C94F40184
:100040000C94F4010C94F4010C94F4010C94F4015C
:100050000C94F4010C94A3080C94F4010C94F40196
:100060000C94F4010C94F4010C94F4010C94F4013C
:100070000C94F4010C94F4010C94F4010C94F4012C
:100080000C94F4010C94F4010C94F4010C94F4011C
:100090000C94F4010C94F4010C94F4010C94F4010C
:1000A0000C94F4010C94F4010C94F4018A058A0573
:1000B000C405C4051D06C407C407C40739061707CD
:1000C00028072807AA0AAA0ABD0ABD0AB30ABD0A58
:1000D000BD0ABD0AAA0AAA0AB80ABD0ABD0AB80A18
:1000E0005F1062107A1087108E10AE104411441108
:1000F000441144114411B110B310B810DC10FD10BC
:100100000011031125119712BE126514BE12651459
:100110000A132D136514221432140000000000008D
:1001200000000000000000000000000000000000CF
:1001300000000000000000000000000000007E0F32
:1001400000D4FFFFFFC7000000780000000000009F
:1001500000002A2B28000000000000000000000022
:10016000000000000029000000002C1E3420212285
:1001700024342627252E362D3738271E1F202122EE
:10018000232425263333362E37381F040506070867
:10019000090A0B0C0D0E0F10111213141516171857
:1001A000191A1B1C1D2F3130232D35040506070895
:1001B000090A0B0C0D0E0F10111213141516171837
:1001C000191A1B1C1D2F3130354C05010980A10166
:1001D000850319012AB700150126B700950175108E
:1001E0008100C0050C0901A101850419012AA002A2
:1001F000150126A002950175108100C005010906B0
:10020000A1018505050719E029E7150025019508D5
:10021000750181020507190029EF1500250195F0E8
:1002200075018102050819012905950575019102DD
:10023000950175039101C00660FF0961A101096282
:10024000150026FF00952075088102096315002618
:10025000FF00952075089102C005010906A101055E
:100260000719E029E7150025019508750181029518
:1002700001750881010507190029FF150026FF00F7
:100280009506750881000508190129059505750170
:100290009102950175039101C009025B0003010001
:1002A000A0FA090400000103010100092111010065
:1002B000012240000705810308000A090401000229
:1002C000030000000921110100012222000705821C
:1002D00003200001070503032000010904020001B7
:1002E00003000000092111010001226D00070584AF
:1002F0000320000A1201100100000008D4463D4608
:100300000100010200011403460065006100720053
:10031000540068007200650065000000200354006E
:1003200068006F006D0061007300200041007500DF
:100330007400690065006C006C006F00000004032D
:100340000904E00006001941005C00000000010003
:100350000100010001000100010011241FBECFEFC8
:10036000DAE0DEBFCDBF04B603FE27C080910202F3
:1003700090910302A0910402B09105028730904B46
:10038000A740B04BD1F410920202109203021092D7
:1003900004021092050214BE84B7877F84BF0FB693
:1003A000F894A89580916000886180936000109215
:1003B00060000FBEE0E0F8E3099511E0A0E0B1E0D5
:1003C000E2E0F8E302C005900D92AE34B107D9F730
:1003D00022E0AEE4B1E001C01D92A230B207E1F725
:1003E0000E94830E0C94FF1B0C9400003F924F92CE
:1003F0005F926F927F928F929F92AF92BF92CF92B5
:10040000DF92EF92FF920F931F93CF93DF93CDB7BD
:10041000DEB729970FB6F894DEBF0FBECDBFFC0143
:100420008081918123813481232B31F09F3F31F4EE
:1004300091E08F3F19F403C091E001C090E090FD7E
:10044000E0C57F0185E0DE01119601900D928A954D
:10045000E1F7F701228189819A81222349F00E94E4
:100460004B0A182F682F89819A810E94ED0A03C0D8
:100470000E94C10A182F69817A81812F0E948318F6
:100480008C01F7018281882309F4F1C0980122517F
:100490003F452031310508F018C18FEF93E00E94ED
:1004A000B01B8111EEC002513FE3832E912C00233B
:1004B00079F08114F4E09F0609F4E3C0C4010E94BE
:1004C000B01B811101C001501FEF811A910AEFCFBB
:1004D0001E821F8218861986442443942AE0322EF5
:1004E00084010F5F1F4FC4010E94B01B8E831F82C7
:1004F000882309F4C6C09FEF980F933060F48F8370
:100500004E8222E0820E911CC8010E94B01B888797
:10051000811102C0B6C048018E010A5F1F4FF80169
:1005200020812223E9F2213009F04CC08181813001
:1005300049F46801F2E0CF0ED11CF80182810E94DB
:10054000921B0AC0823051F46801F2E0CF0ED11C38
:10055000F80182810E94D71A860186C0833049F44F
:100560006801F2E0CF0ED11CF80182810E947B1A53
:10057000F3CF843019F00F5F1F4F76C0F80122814E
:100580000E5F1F4F80E090E030E0205331092A30A9
:10059000310568F4389EA001399E500D1124C9011F
:1005A000840F951F0F5F1F4FF8012081EDCF00973B
:1005B00009F45AC0EFE9FFE03197F1F700C00000FD
:1005C0000197F5CFE22FF0E0E65BFE4F5490822FCB
:1005D00086958695869590E0FC01E65CFE4F6490DA
:1005E0002770712C022E02C0759467940A94E2F76A
:1005F000F1E06F227724FC01E65DFE4FA490B12C60
:10060000022E02C0B594A7940A94E2F731E0A32227
:10061000BB24FC01E65EFE4FC490D12C02C0D594F1
:10062000C7942A95E2F781E0C822DD2461147104A1
:1006300019F081EE0E94D71AA114B10419F086EEC8
:100640000E94D71A852D0E94921BAB2819F086EEC6
:100650000E947B1A672819F081EE0E947B1ACD2830
:1006600019F08CE20E94921B0F5F1F4F58CF003190
:100670003FE5130709F0BCC481E00E94220B0E94F1
:1006800093118091AF01877009F4BBC4F701828197
:10069000882309F4B6C482E029960FB6F894DEBF29
:1006A0000FBECDBFDF91CF911F910F91FF90EF90C3
:1006B000DF90CF90BF90AF909F908F907F906F9082
:1006C0005F904F903F900C94470B0031FFE51F0760
:1006D00011F481E005C001312FE5120721F482E019
:1006E0000E94640BCCCF033FFCE51F0799F406E2A0
:1006F00021EE40EE63EF7CE509C0073DECE51E0707
:1007000011F506E221EE41EE67ED7CE5C7010E949E
:100710009417B7CF043F2CE5120708F03FC1083DFE
:100720003CE5130731F407E225EE45EE68ED7CE584
:10073000EDCF093D9CE5190701F708E221E045EE00
:1007400069ED7CE5E3CF882309F45DC11092500187
:1007500002309CE5190708F440C10631ECE51E079C
:1007600030F0C8018A5F9C45099708F036C10E94A5
:100770005B099093B9018093B8010031FCE51F0734
:1007800009F4C3C008F041C008303CE5130709F480
:100790009AC0F0F404309CE5190709F487C068F4A6
:1007A0000230FCE51F0709F477C003301C4509F04F
:1007B000E5C08091B801826076C006303CE5130741
:1007C00009F46EC008F07BC08091B80188606BC0EE
:1007D0000C309CE5190709F485C068F40A30FCE583
:1007E0001F0709F474C008F079C00E94B40D80910D
:1007F000B801806858C00E303CE5130709F476C094
:1008000008F07FC08091B8018BC00B3F9CE51907B1
:1008100009F44FC018F50331FCE51F0709F47DC04A
:1008200078F401313CE5130709F473C002311C452B
:1008300009F0A4C00E94B40D8091B8018F7733C035
:1008400005319CE5190709F472C008F486C00A3F17
:100850001C4509F093C08091B9013EC00F3F2CE5C3
:10086000120709F45FC058F40D3F8CE5180709F42E
:1008700044C008F43FC08091B90182602DC00130AE
:10088000EDE51E0709F475C008F45DC002301D4592
:1008900009F074C060E06EC08091B801816003C04F
:1008A0008091B80180618093B80168C08091B801DF
:1008B00011C08091B90182608093B9015FC08091BD
:1008C000B8018062F0CF8091B8018064ECCF809154
:1008D000B80188608460E7CF8160EECF8091B80175
:1008E0008E7FE1CF8091B8018D7FDDCF8091B801FF
:1008F000877FD9CF8091B90118C08091B9018D7FD0
:10090000DBCF8091B8018F7ECECF8091B8018F7DF3
:10091000CACF8091B8018F7BC6CF8091B801877F05
:100920008B7FC1CF8091B9018D7F8E7FC5CF8091A4
:10093000B80182FB222720F991E0922790FB82F9EF
:1009400090FB83F9B0CF8091B901982F9095917069
:100950008E7F892B90FB81F9AFCF0E94B40D8091DF
:10096000B80187FB222720F991E0922790FB87F9B5
:100970009ACF61E08EE090E00E94BE1B6091B801CA
:100980001091B90184E090E00E94BE1B612F82E2C9
:1009900090E00E94BE1B0E94B40D73CE053FFCE5A3
:1009A0001F0731F406E221EE42EE65EF7CE5AECEA4
:1009B000053F2CE5120730F407E225EE44EE64EF24
:1009C0007CE5A4CE063F3CE5130709F0BCCE07E268
:1009D00025EE46EE66EF7CE599CE06318CE51807EC
:1009E00011F58091B2018A7A91E009F490E0909338
:1009F0005101882311F065E301C069E282E591E0CD
:100A00000E9426090DC006311C45F1F58091510167
:100A1000882309F4F4C265E382E591E00E94FE08B0
:100A20000E94DD092ECE0A353DE5130741F150F451
:100A300001159CE51907A9F00E3D1C4529F50E94FA
:100A40006C091FCE0B35FDE51F07D9F00C351D4590
:100A5000D9F48091B90182FB882780F991E0892738
:100A600011C00E94B40D3FEF84E39CE03150804000
:100A70009040E1F700C000000E94920802CE81E0A1
:100A800001C080E00E94310AF7018281008111815A
:100A9000882349F0C8010E944B0AD82E682FC8014C
:100AA0000E94ED0A04C0C8010E94C10AD82EB801F4
:100AB0008D2D0E94EA188C01982EF701B280A58036
:100AC000A2949FE0A9228091AF01877099F0BB208A
:100AD00089F0812F807F803421F080E2800F883080
:100AE00048F082E00E94470B8091AF018770DD24BF
:100AF000D3948111D12CC12EC2948FE0C8228C2DA9
:100B000090E08C30910508F03FC2FC01EA5AFF4F9B
:100B10000C94F21B812F807F1F70882311F0129597
:100B2000107FBB20B9F0112309F419C280E2800FB5
:100B3000883010F0911006C08091B201182B1093EC
:100B4000B20105C08091B101182B1093B1010E9430
:100B5000DD0905C2802F0E947B1A112309F414C2FB
:100B6000005E1095083010F0911006C08091B2011F
:100B700018231093B20105C08091B101182310937E
:100B8000B1010E94DD0900C2812F807F1F70803279
:100B900011F01295107F992021F0F1E09F1611F1CC
:100BA00030C0BB20B1F0AA2081F001E0A0120DC03E
:100BB0008091B90182FDE8C18091B301182B18170B
:100BC00009F4E2C11093B301DFC18091B301812B1D
:100BD00010C0AA2021F021E0A21609F4D5C10E947C
:100BE000D70927C0BB2041F035E03A1508F4CCC145
:100BF000812F0E94711AC8C184E08A1508F4C4C10B
:100C000018C0BB2049F0AA2099F3F701858180FF25
:100C1000A6C18F708583ECCFAA2059F0093309F063
:100C2000B0C1FFEF17EE23E0F15010402040E1F794
:100C3000A6C1812F0E94661AA7C1812F869586952D
:100C4000837019F0813059F09FC1BB2019F0C801A1
:100C5000937002C080E090E00E9472179BC1BB209D
:100C600019F0C801937002C080E090E00E945C1708
:100C700091C1812F837009F069C0B11089C1902F93
:100C8000929596959770990F990F802F8F70882E57
:100C9000912CA12CB12C092E04C0880C991CAA1CE3
:100CA000BB1C0A94D2F704FF12C04FE050E060E092
:100CB00070E004C0440F551F661F771F9A95D2F746
:100CC000DB01CA0180959095A095B09503C080E0A6
:100CD00090E0DC0116951695412F4370423019F1D2
:100CE000C8F40091B4011091B5012091B601309182
:100CF000B701413059F088299929AA29BB29BC019B
:100D0000CD0160237123822393230AC0802A912A74
:100D1000A22AB32ABC01CD01682979298A299B29F5
:100D20000E94850B35C188299929AA29BB290091E0
:100D3000B4011091B5012091B6013091B701BC0109
:100D4000CD016027712782279327EACFBB2019F0B6
:100D5000812F817001C08695882309F419C1902FD5
:100D6000929596959770990F990F802F8F70882E76
:100D7000912CA12CB12C092E04C0880C991CAA1C02
:100D8000BB1C0A94D2F704FF12C04FE050E060E0B1
:100D900070E004C0440F551F661F771F9A95D2F765
:100DA000DB01CA0180959095A095B09503C080E0C5
:100DB00090E0DC0116951695412F43704230D9F032
:100DC00068F50091F5011091F6012091F70130913D
:100DD000F801413059F088299929AA29BB29BC0179
:100DE000CD0160237123822393231EC0802A912A80
:100DF000A22AB32A13C088299929AA29BB290091BC
:100E0000F5011091F6012091F7013091F801BC0134
:100E1000CD01602771278227932706C0BC01CD0131
:100E2000682979298A299B290E94180BB1C01F7053
:100E3000BB2039F0812F0E94640B802F0E94711A11
:100E4000A7C0802F0E94661A812F0E94220BA0C08B
:100E5000802F32EF931609F440C0391538F090EF27
:100E6000991661F0E1EF9E1699F174C0F3EF9F16A9
:100E7000D9F124EF921609F44EC06CC0BB2019F1D1
:100E800034E03A1508F480C01F7181E090E0A0E0E2
:100E9000B0E0AC01BD0104C0440F551F661F771FB1
:100EA0001A95D2F78091F5019091F601A091F70182
:100EB000B091F8018A019B01082719272A273B27AF
:100EC000C901B80125C025E02A1508F45DC0DCCFB2
:100ED000BB2029F0812F8F7130C0BB20D9F3812F27
:100EE0008F710E94220B50C0BB2079F01F7181E0EE
:100EF00090E0A0E0B0E0BC01CD0104C0660F771F18
:100F0000881F991F1A95D2F703C060E070E0CB01EB
:100F10000E94180B39C0BB2099F01F71812F0E94CD
:100F2000640B8091B90182FD07C038E0139FC001B6
:100F3000112483608093AF01812F0E94640B24C031
:100F400081E00E94470B81E08A15F0F482E00E9464
:100F5000470B1AC0BB2039F0AA2009F4BBCF802F61
:100F60000E94D71A11C0AA2009F4B9CF893349F4D5
:100F70009FEFE7EEF3E09150E040F040E1F700C072
:100F80000000802F0E947B1A88EF8C0D843010F4B3
:100F90000E948817DD20A9F18091AF0180FD31C04A
:100FA000F70112828595859585950E94640BC7018E
:100FB0000E94F6018091AF018595859585952996CA
:100FC0000FB6F894DEBF0FBECDBFDF91CF911F915A
:100FD0000F91FF90EF90DF90CF90BF90AF909F90D8
:100FE0008F907F906F905F904F903F900C94220B6A
:100FF00001319FE5190709F076CB82E03ECB69E22B
:101000000BCD29960FB6F894DEBF0FBECDBFDF9192
:10101000CF911F910F91FF90EF90DF90CF90BF90F5
:10102000AF909F908F907F906F905F904F903F9088
:10103000089508958091C801089580E00895CF93A0
:10104000DF9320910A01222339F02091B80127FF74
:1010500003C060E224E002C068E021E02093E900E0
:101060002FEF3091E800215035FD06C035ED3A955F
:10107000F1F700002111F5CF2091E80025FF1DC0F8
:10108000EC0180910A01811105C040E050E068E068
:1010900070E003C070E040E050E0CE010E944F16C7
:1010A0008091E8008E778093E80080E2FE01A9EC51
:1010B000B1E001900D928A95E1F7DF91CF9108950B
:1010C000CF93DF9300D01F92CDB7DEB79091EB01A5
:1010D000943011F589837B836A839093E9008FEFC5
:1010E0009091E800815095FD06C095ED9A95F1F735
:1010F00000008111F5CF8091E80085FF0DC040E030
:1011000050E063E070E0CE0101960E944F1680919E
:10111000E8008E778093E8000F900F900F90DF919A
:10112000CF91089587E797E790930108809300088F
:101130009AE088E10FB6F894A895809360000FBEFE
:1011400090936000FFCF78941F920F920FB60F928A
:1011500011248F939F93AF93BF938091C20190917D
:10116000C301A091C401B091C5010196A11DB11D9B
:101170008093C2019093C301A093C401B093C501B1
:10118000BF91AF919F918F910F900FBE0F901F90C5
:1011900018952FB7F8948091C2019091C301A09146
:1011A000C401B091C5012FBF08951F920F920FB6D1
:1011B0000F9211248F939F93AF93BF938091BD01A2
:1011C000811113C08091C2019091C301A091C4010B
:1011D000B091C5014196A11DB11D8093C2019093AC
:1011E000C301A093C401B093C501BF91AF919F917A
:1011F0008F910F900FBE0F901F90189520910A01AC
:101200002223C9F02091B80127FF15C0262F26956B
:10121000269526952E31C8F4FC01E20FF11D67706A
:1012200081E090E001C0880F6A95EAF7809592818D
:10123000892382830895FC0106962281621301C0EE
:1012400012823196E817F907C1F7089520910A0133
:101250002223C1F02091B80127FF14C0262F269524
:10126000269526952E3130F5FC01E20FF11D6770B1
:1012700081E090E001C0880F6A95EAF79281892B9E
:1012800082830895FC0132962FEF30E0419164177C
:1012900089F02F3F19F4411101C0232F3F5F3630F1
:1012A000A9F72F3F39F0FC01E20FF11D27FDFA9558
:1012B000628308950895CF9384E090E00E94B01B6C
:1012C000C82F82E290E00E94B01B2C2F30E0A901D1
:1012D000582BCA01CF9108956AEE7EEF80E090E02E
:1012E0000E94DC1B60E082E090E00E94BE1B60E098
:1012F00083E090E00E94BE1B1092B4011092B501F1
:101300001092B6011092B70160E084E090E00E9474
:10131000BE1B60E082E290E00E94BE1B60E085E0C0
:1013200090E00E94BE1B60E086E090E00E94BE1B41
:101330006FEF87E090E00E94BE1B40E050E0BA01F2
:1013400088E090E00E94D01B60E08DE090E00E9479
:10135000BE1B40E050E0BA0188E190E00E94D01B43
:1013600060E087E190E00E94BE1B40E050E0BA01DF
:101370008CE190E00E94D01B60E070E080E290E0A1
:101380000E94DC1B40E050E0BA0188E190E00E943E
:10139000D01B40E050E0BA018FE090E00E94D01BEB
:1013A00040E050E0BA0183E190E00C94D01B8091C2
:1013B000B30181111092B30108959091B20180910F
:1013C000B101892B2091B001982F922B909352015B
:1013D0008091B3018823D9F0892B809352018091A9
:1013E0000A01882331F08091B80187FF02C08EE1A5
:1013F00001C086E0E4E5F1E090E0815028F0219121
:101400002223D9F39F5FF9CF91110E94D709E09170
:10141000BB01F091BC013097A9F080910A018823AB
:1014200059F08091B80187FF07C0809152018093E5
:10143000530185E0809352010280F381E02D82E523
:1014400091E00994089580E090E00E94721780E096
:1014500090E00E945C171092B1011092B0010C94C0
:10146000DD09CF93C091B901C2FB992790F9981774
:1014700081F080FBC2F9C093B9016091B80184E0AA
:1014800090E00E94BE1B6C2F82E290E0CF910C9402
:10149000BE1BCF910895BF92CF92DF92EF92FF9241
:1014A0000F931F93CF93DF938C01C090F501D090E1
:1014B000F601E090F701F090F8018091B40190916D
:1014C000B501A091B601B091B701C82AD92AEA2A7C
:1014D000FB2ACFE1D0E0D701C6010C2E04C0B6959F
:1014E000A795979587950A94D2F780FD04C0219718
:1014F00090F7B12C07C0BC2EB8018C2F0E94EA18BF
:101500000197A9F38B2DDF91CF911F910F91FF9040
:10151000EF90DF90CF90BF900895CF93DF93EC01D1
:101520000E944B0ABE010E94EA18DF91CF910895F4
:101530000E948D0A292F2F70E92FE295EF704E2F10
:1015400050E0FA013297EE30F105B8F4EE59FF4F52
:101550000C94F21B803F99F018F4883E70F40FC091
:10156000843F59F40CC0883E50F0813F31F407C0ED
:10157000822F869586958695089580E0089581E06E
:101580000895292F220F920F890F682F669566956F
:101590006695982F977085E0689FB001112440E010
:1015A00050E080E0FB01E40FF51FE655FE4F20817F
:1015B00030E0092E02C0369527950A94E2F7217093
:1015C0003327042E01C0220F0A94EAF7822B4F5FC3
:1015D0005F4F4530510531F70895292F220F920FA3
:1015E000890FE82FE695E695E695877051E001C0F2
:1015F000550F8A95EAF785E0E89FF0011124E6553A
:10160000FE4F20E030E070E04081CB01022E02C0AE
:10161000969587950A94E2F78170819584278523B2
:10162000842781932F5F3F4F2530310569F7089557
:101630006093F5017093F6018093F7019093F801A0
:101640000C94230A0F931F9341E050E060E070E098
:1016500004C0440F551F661F771F8A95D2F7409527
:101660005095609570958091F5019091F601A0914B
:10167000F701B091F8018A019B01082319232A235D
:101680003B23C901B8011F910F910C94180B2091B5
:10169000AF01809582238093AF01982F977041F41A
:1016A00030E0482F082E000C550B2417350721F485
:1016B0009091B90192FF07C08595859585950E9407
:1016C000220B1092AF0108950F931F9341E050E059
:1016D00060E070E004C0440F551F661F771F8A95B5
:1016E000D2F78091F5019091F601A091F701B091A8
:1016F000F8018A019B01082B192B2A2B3B2BC901CE
:10170000B8011F910F910C94180B6093B401709362
:10171000B5018093B6019093B7010C94230A809190
:10172000A90190917801891719F08F5F8770FBCF1D
:1017300008950F931F93CF93DF9380917701829544
:101740008F7009F05DC080917401882309F458C03E
:101750008091A901109178016091720170917301DB
:10176000C0917501D091760191E06F3F09F090E052
:10177000292F06E0811709F443C0209721F07F3F0D
:1017800021F030E003C031E001C0322F90E030FDA5
:1017900034C0089FF001099FF00D1124DF01A75804
:1017A000BE4F11963C911197371327C03C913613C9
:1017B00024C012963C91129731111FC013964D917F
:1017C0005C9114974C1B5D0B483C5105B0F4809123
:1017D00077018F70806180937701E258FE4F80819E
:1017E0008F708061808382E791E00E94F601DF9133
:1017F000CF911F910F910C948F0B01968770BACFE8
:10180000DF91CF911F910F9108959F92AF92BF9258
:10181000CF92DF92EF92FF920F931F93CF93DF93BC
:10182000CDB7DEB761970FB6F894DEBF0FBECDBF60
:101830008C0185E0F801DE011D9601900D928A95DC
:10184000E1F7F80190818181E2803091720160912D
:10185000730140917501509176014115510531F0A8
:101860006F3F31F421E03F3F19F403C021E001C094
:1018700020E0F22FF1709F2E20FD23C1F801C380DC
:10188000D48022E7A22E21E0B22EF0907401F6015E
:10189000E41BF50BFF2009F4CEC020917701E83C52
:1018A000F10508F099C0422F407F09F051C068133C
:1018B00011C039130FC0FE2CE1100CC02F70206135
:1018C00020937701C5010E94F60180917701F8010C
:1018D000858337C1CD2831F08F3F31F421E09F3F20
:1018E00019F403C021E001C020E020FD03C021E085
:1018F0002E2502C020E030E0F22FF170FF2E20FFF5
:101900001DC02091A9014091780156E0241709F4E7
:10191000F6C030E0529FF001539FF00D1124E758BC
:10192000FE4F6181861306C06081961303C06281F9
:10193000E61204C02F5F3F4F2770E8CFFE2CEE2049
:1019400009F4FFC08091770181608093770150C0D6
:10195000681307C0391305C0E11003C0F8012583DF
:101960008DC09D878E878D859E850E94980A8823CD
:1019700069F1EE2059F120917701822F82958F70C5
:1019800090E0029774F080917201909173019887B2
:101990008F831986DB86CA862C87CE0107960E9424
:1019A000F60186E0F801A2E7B1E001900D928A9578
:1019B000E1F70E94990B0DC06817E1F09D878E87B3
:1019C0008D859E850E94980A81111EC0C8010E94C3
:1019D000F601FF24F394B5C0422F407F69F782E7F8
:1019E00091E00E94F60186E0F50111928A95E9F7EF
:1019F000F12CA7C03913E2CFE110E0CFF801258325
:101A0000C8010E94F60157C0EE2001F32091770132
:101A1000822F82958F7090E002971CF28091720164
:101A2000909173019A8389831B82DD82CC822E83FD
:101A3000CE010196B4CFE83CF105E8F5FE2CEE208E
:101A400029F2681327C0391325C02091770120FDA2
:101A500018C0822F82958F70482F50E04115510594
:101A600081F0F80125834F30510541F08F5F982FA9
:101A70009295907F822F8F70892B8583C8010E9459
:101A8000F60186E0F801A2E7B1E001900D928A9597
:101A9000E1F757C09D878E878D859E850E94980AA5
:101AA00081117FCF80917701816080937701C80198
:101AB0000E94F60146C086E0F50111928A95E9F789
:101AC00040C0EE2009F482CF9D878E878D859E854C
:101AD0000E94980AF82E882309F478CF86E0F8014E
:101AE000A2E7B1E001900D928A95E1F78091720131
:101AF000909173010E948D0A0E94990B22C09D87CC
:101B00008E878D859E850E948D0A292F22952F70A4
:101B1000223028F49F7039F0811105C00BC02430A9
:101B200028F49F7049F4805E883020F0C8010E943C
:101B3000F6019F2CF92C05C0F8019581907F99F74B
:101B4000F9CF8F2D61960FB6F894DEBF0FBECDBFD3
:101B5000DF91CF911F910F91FF90EF90DF90CF9089
:101B6000BF90AF909F9008951092B20180910A01AA
:101B7000882331F08091B80187FF02C08EE101C057
:101B800086E0E4E5F1E0DF011D928A95E9F70C9427
:101B9000230ABC0184E00C946008BC0183E00C942F
:101BA00060088091ED0187FF11C08091E80082FDFF
:101BB00005C08091EB018111F8CF11C08091E80040
:101BC0008B770BC08091EB01882349F08091E8006E
:101BD00080FFF8CF8091E8008E778093E800089529
:101BE000982F973068F59093E900981739F0709125
:101BF000EC002091ED005091F00003C0242F762FCF
:101C000050E021FD02C09F5FECCF3091EB003E7FA2
:101C10003093EB003091ED003D7F3093ED0030913B
:101C2000EB0031603093EB007093EC002093ED00FB
:101C30005093F0002091EE0027FDE5CF80E008955D
:101C40008F708093E90081E008952091F301309135
:101C5000F4012617370748F06115710539F4209112
:101C6000E8002E772093E80001C0B901FC0120E0D4
:101C70006115710579F18091EB018823F1F18530CF
:101C8000F1F18091E80083FD3CC08091E80082FD85
:101C90002EC08091E80080FFEBCF2091F30080916F
:101CA000F20090E0922B6115710551F0883091059A
:101CB00038F421912093F100615071090196F3CF1E
:101CC00021E0089709F020E08091E8008E7780936A
:101CD000E800CECF2111CFCF0AC08091EB0188233D
:101CE00061F0853061F08091E80083FD0AC0809149
:101CF000E80082FFF2CF80E0089582E0089583E05B
:101D0000089581E00895CF93DF93CDB7DEB7AA970A
:101D10000FB6F894DEBF0FBECDBF84B7877F84BFF8
:101D20000FB6F894A8958091600088618093600058
:101D3000109260000FBE90E080E80FB6F894809398
:101D40006100909361000FBE85B7806885BF85B73D
:101D5000806885BF8DE198E090934F0180934E019C
:101D60000E94C7140E94E6148091E2008460809370
:101D7000E20078948091EB018823A1F01091E900B2
:101D80001F709091EC00892F817090FD80E8182BD6
:101D90001092E9008091E80083FD0E94B1111F704C
:101DA0001093E90082E084BD93E095BD9AEF97BD62
:101DB00080936E00ABE0B1E041E050E08D918F3F49
:101DC00029F421E0AE30B207C9F715C0E82FE2953B
:101DD000EF70F0E021A18F70BA0102C0660F771F8B
:101DE0008A95E2F7CB01962F9095922391A392A129
:101DF000892B82A3E6CF1092BA011092C10180E034
:101E000090E00E94B81B8A3E9E4F11F00E946C0920
:101E100082E090E00E94B01B8093BF010E945B09AA
:101E20009093B9018093B8010E9490188FE39CE9C8
:101E30000197F1F700C000000E9490188091C10145
:101E400080FF17C06FEF83E290E00E94BE1B6FEF30
:101E500084E290E00E94BE1B6FEF85E290E00E945A
:101E6000BE1B6FEF7FEF80E090E00E94DC1B0E94C2
:101E7000920883E090E00E94B01B682F70E080E041
:101E800090E00E94850B83E290E00E94B01B8132BB
:101E900081F484E290E00E94B01B883051F485E226
:101EA00090E00E94B01B91E0833109F090E0892F0F
:101EB00001C080E080FF1EC280E091E09093BC01F1
:101EC0008093BB0198E1C92ED12C20E4422E30E151
:101ED000532E42E1842E50E1952E8E010F5F1F4F4D
:101EE0008091EB01853009F04FC08091EB01853086
:101EF00009F046C08091EB01843009F11092BD01D8
:101F00000FB6F894A895C09260000FBE4092600092
:101F100083B7817F846083BF83B7816083BF7894F8
:101F2000889583B78E7F83BF0FB6F894A89580916C
:101F30006000886180936000109260000FBE809105
:101F4000EA01882391F20E9490188091C1018823B0
:101F500009F4CBCF59BC89BC09B400FEFDCF8091F8
:101F6000D8008F7D8093D8008091E00082608093BC
:101F7000E0008091E00081FDFCCF0E94B40DB5CF60
:101F80000E94B40D0E9488170E949018882359F06F
:101F90008FB7F8944091C2015091C3016091C40180
:101FA0007091C5018FBF2091C1019091C00192270E
:101FB00019F180E0FF24F394392F3F21C9F089A360
:101FC0001AA22F2181E009F480E08BA30E94C908A6
:101FD0008160782F9DA38CA349A15AA16BA18DA1EB
:101FE0000E94BE168091C001F826F092C00114C074
:101FF0008F5FFF0C833001F78FEF8EA38FA318A69E
:102000000E94C9088160782F9AA789A74EA15FA175
:1020100068A58AA50E94BE160E9488179091BE01ED
:10202000891721F00E9488178093BE018091EB01EF
:10203000843009F055CF83E08093E9008091E80077
:1020400082FF4ECF8091E80085FF23C00E941C16BE
:1020500081111DC080E2E82EF12CFE0131965F0156
:1020600009C08091F100F50181935F01F1E0EF1A61
:10207000F10869F08091E80085FDF3CF8091E800D8
:102080008B778093E8000E941C16882399F391E0D7
:1020900001C090E08091E8008B778093E80099235D
:1020A00009F41ECFE9818E2F90E0FC013197E331D6
:1020B000F10508F0E9C0E059FF4F0C94F21B1A82B9
:1020C00089E054C08A81823009F408C1833009F460
:1020D0000EC1813009F0D8C02FB7F8948091C201A9
:1020E0009091C301A091C401B091C5012FBFBB83E2
:1020F000AC8312C08A81823009F0C6C06B817C81BA
:102100008D819E810E94F81B86E290E024C04C8164
:102110006B818A810E945D189D83E7C0AD80BE807F
:10212000BA24AB24BA248C81EB809A8126E0E29E0B
:102130007001112466E0969FE00CF11C1124E80E5A
:10214000F11CE80EF11C6B2DC70187960E94BE1B87
:102150006A2DC70188960E94BE1B98C00E94231852
:1021600095C09A8293C083E08A8381EC8B838EC072
:10217000EA80FB80FE24EF24FE24AC80B12C3801E1
:10218000C701CF969301201B310B2A153B0508F0A0
:102190007DC071ECE71673E0F70628F40E94B01BCF
:1021A000F301848302C0F3011482FFEFEF1AFF0AE8
:1021B0002FEF621A720AE4CFEA80FB80FE24EF243C
:1021C000FE24AC80B12C3801C701CF969301201BAF
:1021D000310B2A153B0508F059C061ECE61663E0A7
:1021E000F60620F4F30164810E94BE1BFFEFEF1A94
:1021F000FF0A2FEF621A720AE7CF0E94131846C037
:1022000084E08A8343C0EA80FB80FE24EF24FE241E
:10221000AC80B12C3801C70187969301201B310B8C
:102220002A153B0598F568E1E616F10428F40E94AA
:10223000B01BF301848302C0F3011482FFEFEF1A95
:10224000FF0A2FEF621A720AE6CFEA80FB80FE24B3
:10225000EF24FE24AC80B12C3801C701879693018E
:10226000201B310B2A153B0588F468E1E616F104C2
:1022700020F4F30164810E94BE1BFFEFEF1AFF0AF6
:102280002FEF621A720AE9CF8FEF89838091EB01F9
:10229000843009F025CE8091E9008F702091EC0008
:1022A000922F917020FD90E8F92EF82A82E0809319
:1022B000E9008091E80080FF0CC040E050E060E25F
:1022C00070E0C8010E944F168091E8008E778093DD
:1022D000E8008F2D8F708093E90002CE86E290E0B7
:1022E0000E94B01B1B821C821D828E83CFCF8091E7
:1022F000C1013CCF60E086E290E00E94BE1B0E94DC
:1023000023180E94131861E283E290E00E94BE1B32
:1023100068E084E290E00E94BE1B63E185E290E009
:102320000E94BE1BC9CD0F931F938091F501909120
:10233000F601A091F701B091F8018C019D010670A2
:10234000112722273327BC01CD01063011052105B5
:10235000310511F4686001C0677F1F910F910C94E3
:10236000180B1F93CF93DF93CDB7DEB7AA970FB6A5
:10237000F894DEBF0FBECDBFEDEEF1E08091F1002D
:10238000819341E0E53FF407C9F78091EE01833086
:1023900009F462C030F4813071F0823009F49CC0DD
:1023A000B3C08A3009F488C08B3009F46DC089301D
:1023B00009F0AAC020C08091ED01813A09F0A4C0C3
:1023C0008091E800877F8093E8008091F1019091EF
:1023D000F201892B21F460E289EC91E003C060E016
:1023E00080E090E070E00E94250E8091E8008B77FD
:1023F0008093E80089C08091ED01813209F084C0AA
:102400008091F1019091F201009719F0029709F083
:102410007BC08091E800877F8093E8008091E8008E
:1024200082FD05C08091EB018111F8CF6DC0209134
:10243000F3008091F20090E0922B029729F48091B2
:10244000F1008B7F813021F48091F1008093C801ED
:102450008091E8008B7754C08091ED01813A09F0BA
:1024600053C08091F1019091F201892B09F04CC089
:102470008091E800877F8093E8008091E80080FFEA
:10248000FCCF80910A0137C08091ED018132E1F5E6
:102490008091F1019091F201892BB1F58091E800D2
:1024A000877F8093E8000E94D10D8091EF01809397
:1024B0000A010E94B40D28C08091ED01813221F5FE
:1024C0008091E800877F8093E8000E94D10D809181
:1024D000F0018093C70118C08091ED01813AA1F409
:1024E0008091E800877F8093E8008091E80080FF7A
:1024F000FCCF8091C7018093F1008091E8008E7736
:102500008093E8000E94D10D8091E80083FFDDC137
:102510008091ED019091EE01492F50E04A30510534
:1025200008F0D3C1FA01ED57FF4F0C94F21B80382D
:1025300021F0823809F0C9C108C08091E901909169
:10254000EA01992389F082600FC08091F1018F70B8
:10255000873008F0BAC18093E9008091EB0085FBD9
:10256000882780F91092E9009091E800977F909376
:10257000E8008093F1001092F10070C1282F2D7FA8
:1025800009F0A3C1882319F0823061F09EC18091C7
:10259000EF01813009F099C1933009F080E0809318
:1025A000EA012EC08091EF0181112AC08091F101D2
:1025B0008F702FEF280F263008F087C18093E90035
:1025C0002091EB0020FF1CC0933021F48091EB00A0
:1025D000806214C09091EB0090619093EB0021E039
:1025E00030E0A90102C0440F551F8A95E2F74093DD
:1025F000EA001092EA008091EB0088608093EB0083
:102600001092E9008091E800877F8093E8000E94A3
:10261000D10D5BC1811159C11091EF011F778091DC
:10262000E3008078812B8093E3008091E800877F2E
:102630008093E8000E94D10D8091E80080FFFCCFDC
:102640008091E30080688093E300111102C082E072
:1026500001C083E08093EB0138C18058823008F0DC
:1026600034C12091EF013091F0012C3D53E035074A
:1026700079F583E08A838AE289834FB7F894DE0193
:10268000139620E03EE051E2E32FF0E05093570034
:10269000E49120FF03C0E295EF703F5FEF708E2F53
:1026A00090E0EA3010F0C79601C0C0968D939D93DC
:1026B0002F5F243149F74FBF8091E800877F8093D7
:1026C000E8006AE270E0CE0101960E94250EB4C0D7
:1026D0008091F1019091F201432F5527433051052C
:1026E000A9F068F44130510509F4FEC042305105AB
:1026F00009F0EBC08BE590E0E9E9F2E04BC0413234
:10270000510529F14232510589F1DFC0C9019927EC
:1027100081309105A1F058F0029709F0D6C0E6E0AB
:10272000F3E0E4918E2F90E0E6E0F3E030C0EEE3DA
:10273000F3E0E4918E2F90E0EEE3F3E028C0ECE1CB
:10274000F3E0E4918E2F90E0ECE1F3E020C08330E1
:10275000910508F0BAC0880F991FFC01E95EFE4F91
:102760000190F081E02D89E090E014C08330910564
:1027700008F0ABC0FC01EE0FFF1FEF5EFE4F0190B3
:10278000F081E02DDC01A25FBE4F8C9190E00097BC
:1027900009F49BC02091E800277F2093E800209156
:1027A000F3013091F4012817390708F4C90140E01A
:1027B000009789F12091EB01222309F43DC02530D7
:1027C000D9F12091E80023FD37C02091E80022FDD7
:1027D0002FC02091E80020FFEBCF4091F300209123
:1027E000F20030E0342B009759F02830310540F4E6
:1027F00044914093F100319601972F5F3F4FF3CF03
:1028000041E02830310509F040E02091E8002E77C2
:102810002093E800CDCF4111CDCF0AC08091EB01CC
:10282000882351F0853041F08091E80083FD04C099
:102830008091E80082FFF2CF8091E8008B7780934F
:10284000E80043C0803809F040C08091E800877FED
:102850008093E8008091EC018093F1008091E80082
:102860008E77D3CE811131C08091EF019091F0012C
:102870009927029754F58091E800877F8093E800BC
:102880001091EF011093EC010E94D10D111106C0BF
:102890008091E30087FD02C081E001C084E0809365
:1028A000EB0142E061EC81E00E94F00D42E261EC5C
:1028B00084E00E94F00D42E261EC82E00E94F00DA3
:1028C00042E260EC83E00E94F00D8091E80083FF1B
:1028D00010C08091E800877F8093E8008091EB0032
:1028E00080628093EB0005C082E190E0E4EFF2E0CB
:1028F00051CFAA960FB6F894DEBF0FBECDBFDF91C1
:10290000CF911F9108951F920F920FB60F9211242D
:102910002F933F934F935F936F937F938F939F93E7
:10292000AF93BF93CF93DF93EF93FF93C091E900F1
:10293000CF708091EC00D82FD17080FDD0E810923C
:10294000E9008091F000877F8093F00078940E94E6
:10295000B1111092E9008091F00088608093F0003E
:10296000CD2BCF70C093E900FF91EF91DF91CF9114
:10297000BF91AF919F918F917F916F915F914F9197
:102980003F912F910F900FBE0F901F901895E8ED7B
:10299000F0E080818E7F80831092E2001092DA0056
:1029A0001092E100A0EEB0E08C9181608C93808168
:1029B0008F77808319BCA7EDB0E08C918E7F8C93CC
:1029C00080818F7E80831092C6010895CF92DF921E
:1029D000EF92FF920F931F93CF93DF93C8EDD0E058
:1029E00088818F7E8883E7EDF0E08081816080833D
:1029F00084E082BF81E08093C60188818E7F8883D6
:102A000002EE10E0F80110821092DA0081EEC82E7A
:102A1000D12CF601108288818F7788838881806825
:102A2000888388818F7D888319BC1092EB01109276
:102A3000EC011092EA011092E90190EEE92EF12CDE
:102A4000F70180818B7F808388818160888342E069
:102A500060E080E00E94F00DF60180818E7F80832F
:102A6000F801808181608083808188608083F701A4
:102A700080818E7F8083888180618883DF91CF9180
:102A80001F910F91FF90EF90DF90CF9008951F92CC
:102A90000F920FB60F9211242F933F934F935F9392
:102AA0006F937F938F939F93AF93BF93EF93FF9316
:102AB0008091E10082FF09C08091E20082FF05C0A1
:102AC0008091E1008B7F8093E1008091DA0080FFAC
:102AD0002AC08091D80080FF26C08091DA008E7FC6
:102AE0008093DA008091D90080FF18C080E189BD11
:102AF00082E189BD09B400FEFDCF81E08093EB0146
:102B00008091C60181110FC00E94C7140E94E61473
:102B10008091E20084608093E20005C019BC1092AD
:102B2000EB011092C6018091E10080FF17C08091F7
:102B3000E20080FF13C08091E2008E7F8093E2006C
:102B40008091E20080618093E2008091D8008062F1
:102B50008093D80019BC85E08093EB018091E1005F
:102B600084FF2EC08091E20084FF2AC080E189BDED
:102B700082E189BD09B400FEFDCF8091D8008F7D30
:102B80008093D8008091E1008F7E8093E100809156
:102B9000E2008F7E8093E2008091E200816080936A
:102BA000E2008091EC01882311F084E007C080915D
:102BB000E30087FD02C081E001C083E08093EB0168
:102BC0008091E10083FF27C08091E20083FF23C052
:102BD0008091E100877F8093E10082E08093EB01A8
:102BE0001092EC018091E1008E7F8093E100809152
:102BF000E2008E7F8093E2008091E200806180930A
:102C0000E20042E060E080E00E94F00D8091F00080
:102C100088608093F000FF91EF91BF91AF919F91F9
:102C20008F917F916F915F914F913F912F910F9075
:102C30000FBE0F901F9018952091E4003091E50091
:102C400095E64091EC00842F817040FF23C0809175
:102C5000E80080FD1DC08091EB01882399F085304C
:102C600099F08091EB0085FD11C04091E4005091F6
:102C7000E5002417350729F3915011F09A01E1CFAF
:102C800084E0089582E0089583E0089581E0089546
:102C900080E008954091E80042FFDDCF0895EF9273
:102CA000FF920F931F93CF93DF937C018B010E94C0
:102CB0001C16811119C0E70101151105A1F08091C1
:102CC000E80085FD0AC08091E8008E778093E800D7
:102CD0000E941C16882381F307C089918093F1001C
:102CE00001501109E9CF80E0DF91CF911F910F9141
:102CF000FF90EF9008959091B80192FF0DC0282F9A
:102D00002871283019F4877F846006C0282F247129
:102D1000243011F48B7F886093FF0DC0282F287119
:102D2000283119F4877E846106C0282F247124314C
:102D300011F48B7E88612091B90120FF0DC0382FDE
:102D40003871383019F4877F816006C0382F3171AF
:102D5000313011F48E7F886021FF0DC0282F28713B
:102D6000283119F4877E816106C0282F2171213115
:102D700011F48E7E886194FD877E08951F93CF9312
:102D8000DF93CDB7DEB767970FB6F894DEBF0FBEFF
:102D9000CDBF342F4B8B252F5C8B6D8B7E8B8F8B18
:102DA0004E895F8961111092B10186E0FE013D9666
:102DB000DF01982F1D929A95E9F73D872E876F873F
:102DC000598B488BDE01179601900D928A95E1F799
:102DD000CE0107960E94050C81113EC086E0FE01DF
:102DE0003796DE01119601900D928A95E1F7FF81E9
:102DF000E8856A857B856115710531F0EF3F31F417
:102E000081E0FF3F19F403C081E001C080E080FD54
:102E100023C02091780130E0C9010196877099277D
:102E20004091A90150E08417950779F1F983EA836D
:102E30007D836C8396E0929FD001939FB00D112407
:102E4000A758BE4FFE01319601900D929A95E1F779
:102E5000809378010E948F0B16E08091A9019091D8
:102E600078018917F9F0189FC001112487589E4FE7
:102E70000E94050C8823B1F08091A90190E0019691
:102E8000877099278093A901E8CF0E94B40D109212
:102E900078011092A901E2E7F1E086E0DF011D92DE
:102EA0008A95E9F767960FB6F894DEBF0FBECDBFDF
:102EB000DF91CF911F91089520910002309101027E
:102EC0002817390771F09093010280930002E09176
:102ED000BB01F091BC01309721F00084F185E02D19
:102EE000099408952091FE013091FF0128173907B8
:102EF00071F09093FF018093FE01E091BB01F0918E
:102F0000BC01309721F00680F781E02D09940895E7
:102F1000E091BB01F091BC01309721F00190F0816C
:102F2000E02D099480E008950F931F93CF93DF93D2
:102F3000C42F122FFC0182818823C9F040935001D5
:102F40000E94C9089093FD018093FC0180E28C0FE0
:102F5000883008F063C0C77081E001C0880FCA954F
:102F6000EAF7DF91CF911F910F910C94711A809124
:102F7000500148133CC02091FC013091FD014FB736
:102F8000F8948091C2019091C301A091C401B091C5
:102F9000C5014FBF821B930B883C910540F5D0E2E1
:102FA000D10FC117B9F080E28C0F883040F4C770A0
:102FB00081E001C0880FCA95EAF70E94661AD830EE
:102FC00030F581E0912F977001C0880F9A95EAF74C
:102FD0000E94711A802F0E94921BD830F8F4212F82
:102FE000277081E001C0880F2A95EAF70AC080E2C5
:102FF0008C0F883098F4C77081E001C0880FCA95A3
:10300000EAF7DF91CF911F910F910C94661A802FF0
:10301000DF91CF911F910F910C94921BDF91CF9173
:103020001F910F910895CF93DF93CFE3D0E060E03D
:10303000CE010E94BE1B2196C11584E0D807B9F7C6
:10304000DF91CF910895AF92BF92CF92DF92EF922E
:10305000FF920F931F93CF93DF93C7E2D0E07E01DF
:1030600000E010E06E0187E2C81AD108F601E00F17
:10307000F11FEE5BFC4FA590B4906B2DC7010E9431
:10308000BE1B6A2DC70101960E94BE1B0E5F1F4F1B
:1030900082E0E80EF11C0630110541F72696CF3389
:1030A000D105E9F6DF91CF911F910F91FF90EF903D
:1030B000DF90CF90BF90AF9008950F931F93CF9361
:1030C000DF93C42FD0E0CC0FDD1F26E0629FC00D40
:1030D000D11D112436E0839FC00DD11D1124CE01D6
:1030E00087960E94B01B082F10E0102F0027CE01FA
:1030F00088960E94B01B9801282BC901DF91CF91BF
:103100001F910F910895462F843038F4711105C036
:10311000633018F460E00C945D1880E090E008954E
:10312000CF93ABE0B1E040E050E030E061E070E030
:103130002D912F3FC1F0E22FE295EF70F0E080A1DA
:1031400090E02F7002C0959587952A95E2F780FD53
:1031500007C0CB01042E01C0880F0A94EAF702C011
:1031600080E090E0382B4F5F5F4F4330510501F70F
:103170008091BA01831769F03093BA0181E080939E
:10318000FB010E94C9089093FA018093F90181E044
:1031900001C080E09091FB019923D1F02091F901C9
:1031A0003091FA019FB7F8944091C2015091C30148
:1031B0006091C4017091C5019FBF421B530B463003
:1031C000510530F09091BA019093C1011092FB012A
:1031D000CF910895CF93DF930E948318EC0182383A
:1031E000910559F1A0F48133910509F473C040F4BD
:1031F0008932910509F467C08A9709F472C084C0C6
:103200008533910509F458C0C997B9F07DC0833E54
:10321000910571F138F4803E9105B1F0823E91053F
:1032200011F172C0863E9105B9F1873E9105C9F151
:10323000843E910509F068C024C08091B80180FDEA
:103240005DC081FD5BC060C08091B80180FD50C051
:103250008091B90180FF36C18091B80184FD30C1F1
:10326000C3EED0E02FC18091B80182FF2BC1F4CF13
:103270008091B80182FD3FC08091B90180FD3EC0C0
:10328000EBCF8091B90181FF1DC18091B80184FD10
:1032900017C1C7EED0E016C18091B80183FF12C1FB
:1032A000F4CF8091B80183FD2CC08091B90181FFDA
:1032B000ECCFC4EED0E006C18091B80185FF02C119
:1032C000C9E2D0E0FFC08091B80185FFFBC0C5E333
:1032D000D0E0F8C08091B80186FFF4C0CAE2D0E027
:1032E000F1C08091B80186FFEDC0C1E3D0E0EAC033
:1032F000C9E3D0E0E7C0C2EED0E0E4C0C0EED0E069
:10330000E1C0C6EED0E0DEC0C11582E5D80708F006
:1033100066C0C11591E5D90728F0DC2FCC27C16F15
:10332000D06AD0C0C83ED10560F5C03ED10508F0D6
:10333000C9C0C83AD105B0F4C53AD10540F0C55A64
:10334000D0E0C35EDE4FC881D0E0D064BBC0C130E6
:10335000D10509F4B7C008F4B3C0C430D10508F4EE
:10336000AFC0B0C0CF3BD10508F0AAC0C85AD0E06A
:10337000CC0FDD1FC05EDE4F0990D881C02DD46414
:10338000A1C0C11520E5D207E0F0CE0174E096950A
:1033900087957A95E1F783709C2F937021E030E058
:1033A00002C0220F331F9A95E2F73C68382BCF708A
:1033B000C695C69580E2C89FE0011124C22BD32B8D
:1033C00081C0C11580E4D80718F0DF70D06A7AC0D8
:1033D000CE019A9581159F4108F474C071C0C11542
:1033E00086E5D807F0F5C11595E5D90750F08C2F83
:1033F0000E947B168F71C82FD0E0DC2FCC27D062C3
:1034000061C0C11524E5D20728F0DC2FCC27C46F9A
:10341000D06A58C09E01237033278C2F86958695DD
:10342000C115D34578F4C1E0D0E002C0CC0FDD1F58
:103430002A95E2F720E2829FC0011124C82BD92BE4
:10344000DC6840C0C1E0D0E002C0CC0FDD1F2A958F
:10345000E2F720E2829FC0011124C82BD92BDA6841
:1034600031C0C1152AE5D207E8F4C11589E5D807AE
:1034700080F08C2F8F700E947B1694E0D695C795B4
:103480009A95E1F7CF70D0E0DC2FCC27D069C82B1C
:1034900019C0C11598E5D90798F0DC2FCC27C06F6B
:1034A000D06A10C0CE0190568115904248F48D2FFD
:1034B0008F710E947B16DD27D0628F71D82B02C0DE
:1034C000C0E0D0E0CE01DF91CF910895882341F094
:1034D00080959091B20189238093B2010C94DD090B
:1034E0000895882339F09091B201892B8093B2011D
:1034F0000C94DD090895882309F458C0682F823898
:1035000069F40E94881781FF51C069E382E591E068
:103510000E9426090E94DD0969E30EC0833891F4F8
:103520000E94881780FF42C063E582E591E00E9417
:1035300026090E94DD0963E582E591E00E94FE080C
:103540000C94DD09843869F40E94881782FF2EC02C
:1035500067E482E591E00E9426090E94DD0967E4A4
:10356000EBCF8CEF860F813A38F380E2860F8830FC
:1035700070F4677081E090E001C0880F6A95EAF707
:1035800080959091B20189238093B201D9CF8BE5C8
:10359000860F833020F480E090E00C947217685A14
:1035A000673120F480E090E00C945C170895CF938D
:1035B000882309F4B5C0C82F8238B1F40E94881757
:1035C00081FDAEC069E382E591E00E9426090E9478
:1035D000DD092FEF81EE94E0215080409040E1F72B
:1035E00000C0000069E317C08338E1F40E94881727
:1035F00080FD96C063E582E591E00E9426090E9465
:10360000DD092FEF81EE94E0215080409040E1F7FA
:1036100000C0000063E582E591E00E94FE08CF91C2
:103620000C94DD098438B1F40E94881782FD78C0BB
:1036300067E482E591E00E9426090E94DD092FEFF0
:1036400081EE94E0215080409040E1F700C00000FE
:1036500067E4E1CF8CEF8C0F813AB8F580910A01D5
:103660008823E1F08091B80187FF18C0EC2FE69520
:10367000E695E695F0E0EE5AFE4F8281282F30E085
:103680004C2F477081E090E002C0880F991F4A9547
:10369000E2F782239323892B59F411C0E4E5F1E08A
:1036A0008191C81729F021E0EA35F207C9F707C070
:1036B0006C2F82E591E00E94FE080E94DD096C2FCC
:1036C00082E591E00E942609AACF80E28C0F883023
:1036D00068F4C77081E090E001C0880FCA95EAF7EE
:1036E0009091B201892B8093B20199CFEBE5EC0F59
:1036F000E33040F4F0E0E35EFE4F808190E0CF9154
:103700000C947217C85AC73158F4EC2FF0E0EE0F42
:10371000FF1FE05EFE4F80819181CF910C945C177A
:10372000CF9108951F93CF93DF93182F893319F00A
:10373000C0E0D0E002C0C0E5D0E0812F0E94D71ADF
:10374000209741F08FE99FE00197F1F700C000005A
:103750002197F6CF812FDF91CF911F910C947B1A87
:10376000F999FECF92BD81BDF89A992780B5089549
:10377000A8E1B0E042E050E00C94E41B262FF99958
:10378000FECF92BD81BDF89A019700B4021639F0C0
:103790001FBA20BD0FB6F894FA9AF99A0FBE089591
:1037A0000396272F0E94BF1B0E94BE1B252F0E943D
:1037B000BF1B242F0C94BF1B0196272F0E94BF1BF9
:1037C0000C94BE1BDC01CB01FC01F999FECF06C0B5
:1037D000F2BDE1BDF89A319600B40D9241505040CF
:1037E000B8F70895EE0FFF1F0590F491E02D0994AE
:1037F0006927962769277827872778270895F894D7
:02380000FFCFF8
:103802001A081F081908CD0DC90D01919094402284
:103812006D59023702CA01AB02C402E402818283FB
:10382200E200E900EA00B500B600B700CD0083016E
:10383200CC008A0192019401210223022402250272
:0E384200260227022A02B300B4006F007000B5
:00000001FF
