:100000000C9489010C94D0010C94D0010C94D00173
:100010000C94D0010C94D0010C94D0010C94D0011C
:100020000C94D0010C94D0010C94CA190C949C1A15
:100030000C9414150C94D0010C94D0010C94D001A4
:100040000C94D0010C94D0010C94D0010C94D001EC
:100050000C94D0010C946D150C94D0010C94D0012B
:100060000C94D0010C94D0010C94D0010C94D001CC
:100070000C94D0010C94D0010C94D0010C94D001BC
:100080000C94D0010C94D0010C94D0010C94D001AC
:100090000C94D0010C94D0010C94D0010C94D0019C
:1000A0000C94D0010C94D0010C94D001030B030BE1
:1000B000350B350B820BA90CA90CA90CA00B390C24
:1000C0004A0C4A0C450D450D570D570D4E0D570D59
:1000D000570D570D450D450D530D570D570D530D2C
:1000E000091B301B281C301B281C7C1B9F1B281C39
:1000F000F61B051C5468726565206B657973206971
:100100007320616C6C20612070726F6772616D6D1D
:100110006572206E656564732100E0000641194236
:10012000005C0000005C5F5D5F5D0000000000009F
:10013000000000002A2B2800000000000000000042
:100140000000000000000029000000002C1E3420E8
:10015000212224342627252E362D3738271E1F200E
:100160002122232425263333362E37381F04050653
:100170000708090A0B0C0D0E0F1011121314151697
:100180001718191A1B1C1D2F3130232D3504050695
:100190000708090A0B0C0D0E0F1011121314151677
:1001A0001718191A1B1C1D2F3130354C0000000088
:1001B000000000000000000000000000000000003F
:1001C000000000000000000000000000000000002F
:1001D0007E0F00D4FFFFFFC7000000781403460025
:1001E00065006100720054006800720065006500DF
:1001F00000002003540068006F006D006100730070
:100200002000410075007400690065006C006C00FE
:100210006F0000000403090409023B00020100A072
:10022000FA09040000010301010009211101000184
:100230002240000705810308000A090401000103A8
:10024000000000092111010001226D000705820351
:1002500020000A1201100100000008EDFE0000015C
:10026000000102000105010980A101850319012A8D
:10027000B700150126B700950175108100C0050C67
:100280000901A101850419012AA002150126A00275
:10029000950175108100C005010906A101850505BC
:1002A0000719E029E7150025019508750181020568
:1002B00007190029EF1500250195F0750181020548
:1002C000081901290595057501910295017503919C
:1002D00001C005010906A101050719E029E715007C
:1002E00025019508750181029501750881010507B1
:1002F000190029FF150026FF0095067508810005E5
:10030000081901290595057501910295017503915B
:1003100001C011241FBECFEFDAE0DEBFCDBF04B6AF
:1003200003FE27C080912F0290913002A0913102EC
:10033000B09132028730904BA740B04BD1F410926D
:100340002F0210923002109231021092320214BE2B
:1003500084B7877F84BF0FB6F894A895809160001A
:10036000886180936000109260000FBEE0E0F8E3C7
:10037000099511E0A0E0B1E0ECE4F9E302C00590DA
:100380000D92A237B107D9F722E0A2E7B1E001C090
:100390001D92AF32B207E1F70E9404170C94A41C1F
:1003A0000C9400008F359D4541F4FB018281882328
:1003B00021F084EF90E00E94680381E0089581E0DD
:1003C00008950C94D20108950C94E3011F93CF93E8
:1003D000DF9300D000D01F92CDB7DEB749835A8398
:1003E0006B8330918B0189819A81311114C066230E
:1003F00059F0222349F00E940112182F682F898199
:100400009A810E94AA1103C00E94D511182F6981F8
:100410007A81812F04C00E94011269817A810F9034
:100420000F900F900F900F90DF91CF911F910C9430
:100430007B03FC01262F408151816281738184817D
:100440000C94E601CF93DF93EC0160E00E94190267
:10045000BE01DF91CF910C94E4010E9458050C94E9
:100460008A050C94860508950E94330D0E9433027C
:100470002FEF84E39CE0215080409040E1F700C0E2
:1004800000000C9493150F931F93CF93DF938C016F
:1004900061E00E941902EC01B8010E94E101882389
:1004A000F1F1B801CE010E94A2068823C1F1B80182
:1004B000CE010E94F406882391F1B801CE010E947A
:1004C0001F08882361F1F8018281882309F1CB3567
:1004D0008DE5D807C1F050F4C115FCE5DF0781F0C8
:1004E000CF3DDC45A9F40E94FF1319C0CC35EDE5E2
:1004F000DE0761F0CD35DD4559F40E94941208C045
:100500000E9434020CC00E949D1202C00E94A012E0
:10051000C801DF91CF911F910F910C94DF0180E012
:10052000DF91CF911F910F910895DF92EF92FF928B
:100530000F931F93CF93DF93E82FF0E0E45DFE4F1E
:10054000D490282F26952695269530E0F901E4537E
:10055000FE4F0491877010E0082E02C01595079594
:100560000A94E2F701701127F901E454FE4FE49078
:10057000F12C082E02C0F594E7940A94E2F791E07A
:10058000E922FF24F901E455FE4FC491D0E002C0F6
:10059000D595C7958A95E2F7C170DD27011511053C
:1005A00019F081EE0E949D09E114F10419F086EE24
:1005B0000E949D098D2D0E94B50AEF2819F086EE44
:1005C0000E943F0A012B19F081EE0E943F0ACD2BB9
:1005D00051F08CE2DF91CF911F910F91FF90EF903E
:1005E000DF900C94B50ADF91CF911F910F91FF908E
:1005F000EF90DF900895EF92FF920F931F93CF93A8
:10060000DF938C01F62E8AE0E82EF801849188238E
:1006100009F457C0813009F042C0E8012196FE017B
:100620008491813031F42196FE0184910E94B50AB3
:1006300039C0823039F4E8012296FE0184910E948B
:100640009D0930C0833039F4E8012296FE0184917F
:100650000E943F0A27C0843029F5E8012296FE0156
:10066000249180E090E030E0205331092A303105B8
:1006700060F4E89EA001E99E500D1124C901840F89
:10068000951F2196FE012491EECF009759F0EFE9D6
:10069000FFE03197F1F700C000000197F6CF0E940C
:1006A0009502E8018E010F5F1F4F8F2D882309F4FB
:1006B000ACCFEFE9FFE03197F1F700C000008150C7
:1006C000F5CFDF91CF911F910F91FF90EF9008959B
:1006D00060E00C94FB0208950C946B0381E0089594
:1006E0000C946E03CF93C82F0E946C038C2F0E9432
:1006F0007003CF910895E72FF0E09F01280F311D7F
:10070000C901F901EE0FFF1FE80FF91FE60FF11DF8
:10071000EE0FFF1FE65EFE4F859194910895CF93F3
:10072000DF930E947B030E948004EC0181159245B7
:10073000F0F5C11581E5D80708F0A9C0C83ED1057C
:1007400028F5C03ED10508F0D7C0C83AD10578F4E5
:10075000C53AD10508F074C0C130D10509F4CCC048
:1007600008F4C8C0C430D10508F0C6C0C3C0CF3B30
:10077000D10508F0BFC0C85AD0E0CC0FDD1FC35F61
:10078000DE4F0990D881C02DD464B6C0C11590E564
:10079000D90708F060C0C11520E4D20708F058C09E
:1007A000CE019A9581159F4108F4A6C0A3C0C1153A
:1007B00086E5D80718F5C11595E5D90708F080C07A
:1007C000C11524E5D20708F076C09E0123703327B7
:1007D0008C2F86958695C115D34508F05DC0C1E084
:1007E000D0E002C0CC0FDD1F2A95E2F720E2829F05
:1007F000C0011124C82BD92BDC687EC0C1152AE5A5
:10080000D20778F4C11589E5D80708F063C0C1158F
:1008100098E5D90708F46EC0DC2FCC27C06FD06AEA
:100820006BC0CE0190568115904208F063C08D2FA9
:100830008F710E941405DD27D0628F71D82B5CC0A8
:10084000C55AD0E0C55CDE4FC881D0E0D06454C04A
:10085000DF70D06A51C0CE0174E0969587957A9585
:10086000E1F783709C2F937021E030E002C0220FEB
:10087000331F9A95E2F73C68382BCF70C695C69522
:1008800080E2C89FE0011124C22BD32B35C0DC2F9E
:10089000CC27C16FD06A30C0C1E0D0E002C0CC0F1D
:1008A000DD1F2A95E2F720E2829FC0011124C82BA8
:1008B000D92BDA6821C0DC2FCC27C46FD06A1CC0CA
:1008C0008C2F0E9414058F71C82FD0E0DC2FCC270D
:1008D000D06212C08C2F8F700E94140594E0D695C0
:1008E000C7959A95E1F7CF70D0E0DC2FCC27D0697F
:1008F000C82B02C0C0E0D0E0CE01DF91CF910895B7
:100900008238910569F1B0F48133910509F46DC025
:1009100048F48932910509F463C08A32910509F4DB
:1009200069C008958533910509F455C0893391054F
:10093000B9F00895833E910569F138F4803E910540
:10094000B1F0823E910509F10895863E9105A9F125
:10095000873E9105B9F1843E910509F064C023C03A
:1009600020911A0220FD4FC021FD4DC008958091B5
:100970001A0280FD44C080911B0280FF44C0809118
:100980001A0284FD42C083EE4DC080911A0282FF9C
:1009900038C0F5CF80911A0282FD33C080911B02CE
:1009A00080FD31C0ECCF80911B0281FF32C080916D
:1009B0001A0284FD2AC087EE35C080911A0283FF97
:1009C00026C0F5CF80911A0283FD21C080911B02C1
:1009D00081FD1FC0ECCF80911A0285FD1CC01DC097
:1009E00080911A0285FD19C016C080911A0286FDF9
:1009F00016C017C080911A0286FD13C010C089E38B
:100A000011C082EE0FC080EE0DC080E00BC086EEFC
:100A100009C084EE07C089E205C085E303C08AE20D
:100A200001C081E390E0089590911A0292FF0DC0F9
:100A3000282F2871283019F4877F846006C0282F5A
:100A40002471243011F48B7F886093FF0DC0282F10
:100A50002871283119F4877E846106C0282F2471FB
:100A6000243111F48B7E886120911B0220FF0DC080
:100A7000382F3871383019F4877F816006C0382FDD
:100A80003171313011F48E7F886021FF0DC0282F25
:100A90002871283119F4877E816106C0282F2171C1
:100AA000213111F48E7E886194FD877E089508952A
:100AB0000E945713811102C00E94FF130E9462130B
:100AC0008093F6010E946A1390931B0280931A028E
:100AD0000E9457050E946613682F70E080E090E046
:100AE0000E94AC106091C9017091CA018091CB0144
:100AF0009091CC010C94E410E82FF0E0E35EFD4F00
:100B000080810895089508950C9483050C948405BC
:100B10000C9483050C948805CF93DF93AEE3B1E08A
:100B200061E471E041E050E08D918F3F71F46A170C
:100B30007B07D1F710921C0210921D0281E00E94E7
:100B4000F805DF91CF910C942D02E82FE295EF701C
:100B5000F0E021A18F70EA0102C0CC0FDD1F8A9561
:100B6000E2F7CE019C2F9095922391A392A1892B1D
:100B700082A3DDCFCF93AEE3B1E040E050E030E0C0
:100B800061E070E02D912F3FC1F0E22FE295EF7010
:100B9000F0E080A190E02F7002C0959587952A958E
:100BA000E2F780FD07C0CB01042E01C0880F0A9434
:100BB000EAF702C080E090E0382B4F5F5F4F433090
:100BC000510501F780911C02831721F030931C021C
:100BD000C1E001C0C0E02C2F41E06DE172E08CE18A
:100BE00092E00E94F9050E9431028C2FCF91089566
:100BF0000895FF920F931F93CF93DF938C01F62EEE
:100C0000D72FC42F222349F081E0809376010E94E0
:100C10004615909375018093740180917601882325
:100C2000C1F080917401909175010E945E15069744
:100C300080F0EF2DFD2FD8014C2F50E0CD01801B0F
:100C4000910B841795071CF48D918193F7CF109227
:100C50007601DF91CF911F910F91FF9008950F932F
:100C60001F93CF93DF93C42FD22FFC01828188235F
:100C7000C9F0409379010E944615909378018093C2
:100C8000770180E28C0F883008F057C0C77081E090
:100C900001C0880FCA95EAF7DF91CF911F910F919C
:100CA0000C94BE0A80917901481330C0809177017D
:100CB000909178010E945E15883C910538F510E20C
:100CC0001D0FCD17B9F080E28C0F883040F4C7704B
:100CD00081E001C0880FCA95EAF70E94C50A183062
:100CE00028F581E09D2F977001C0880F9A95EAF74B
:100CF0000E94BE0A802F0E94B50A1830F0F4D77007
:100D000081E001C0880FDA95EAF70AC080E28C0F13
:100D1000883098F4C77081E001C0880FCA95EAF75F
:100D2000DF91CF911F910F910C94C50A802FDF9115
:100D3000CF911F910F910C94B50ADF91CF911F9124
:100D40000F9108950F939C01CB01243F4CE534078C
:100D500031F188F4293DFCE53F07D9F02A3D4CE507
:100D6000340779F1283D3C45A9F506E221EE41EE34
:100D700068ED7CE52BC0263FFCE53F07E1F0A8F0DD
:100D8000273F3C4539F507E225EE46EE67EF7CE567
:100D90001DC007E225EE45EE69ED7CE517C006E2D1
:100DA00021EE40EE64EF7CE511C007E225EE44EE53
:100DB00065EF7CE50BC006E221EE42EE66EF7CE5D6
:100DC00005C008E221E045EE6AED7CE50E942F06B1
:100DD00080E008C0FC018281882319F0109279011B
:100DE00001C081E00F910895CF93DF93EC01FB01E7
:100DF0008281882309F41FC1C230FCE5DF0708F4B3
:100E00001BC1C6319CE5D90738F09E012B5F3C45DC
:100E10002930310508F010C10E946A1390931B021B
:100E200080931A02C031ECE5DE0709F4C3C008F074
:100E300041C0C8308CE5D80709F49AC0F0F4C4303A
:100E4000ECE5DE0709F487C068F4C2308CE5D8070A
:100E500009F477C0C330DC4509F0E3C080911A0281
:100E6000826076C0C630ECE5DE0709F46EC008F09B
:100E70007BC080911A0288606BC0CC308CE5D807AB
:100E800009F485C068F4CA30ECE5DE0709F474C0E3
:100E900008F079C00E94330D80911A02806858C012
:100EA000CE308CE5D80709F476C008F07FC0809179
:100EB0001A028BC0CC3FECE5DE0709F44FC018F5F1
:100EC000C3318CE5D80709F47DC078F4C131ECE575
:100ED000DE0709F473C0C231DC4509F0A2C00E94EC
:100EE000330D80911A028F7733C0C5318CE5D80756
:100EF00009F472C008F486C0CB3FDC4509F091C00C
:100F000080911B023EC0C115FDE5DF0709F45FC0FB
:100F100058F4CE3F9CE5D90709F444C008F43FC01B
:100F200080911B0282602DC0C230FDE5DF0709F40D
:100F300075C008F45DC0C330DD4509F072C080E0C3
:100F40006EC080911A02816003C080911A02806194
:100F500080931A0266C080911A0211C080911B0210
:100F6000826080931B025DC080911A028062F0CF84
:100F700080911A028064ECCF80911A0288608460AC
:100F8000E7CF8160EECF80911A028E7FE1CF809112
:100F90001A028D7FDDCF80911A02877FD9CF809191
:100FA0001B0218C080911B028D7FDBCF80911A023B
:100FB0008F7ECECF80911A028F7DCACF80911A0288
:100FC0008F7BC6CF80911A02877F8B7FC1CF8091A4
:100FD0001B028D7F8E7FC5CF80911A0282FB222754
:100FE00020F991E0922790FB82F990FB83F9B0CF32
:100FF00080911B02982F909591708E7F892B90FB8A
:1010000081F9AFCF0E94330D80911A0287FB22270E
:1010100020F991E0922790FB87F99ACF81E00E9416
:10102000011480911A0290911B020E947B130E946E
:10103000330D80E001C081E0DF91CF910895CF931F
:10104000DF9386319C4541F5EB010E94A312982F56
:101050008A812091000130910101882379F09A7AE8
:1010600081E009F480E080937A01911102C069E285
:1010700001C065E3C9010E949C140AC080917A01F5
:10108000811102C069E201C065E3C9010E94A71491
:101090000E94E81280E001C081E0DF91CF910895C5
:1010A0009093800180937F010895E0917F01F091FA
:1010B0008001309721F00190F081E02D099480E0CB
:1010C0000895E0917F01F0918001309799F020918F
:1010D0000C01222359F020911A0227FF07C0DC01DE
:1010E0002C9111962C93119725E02C930280F3817B
:1010F000E02D0994089520917D0130917E012817FB
:10110000390771F090937E0180937D01E0917F011A
:10111000F0918001309721F00680F781E02D09944D
:10112000089520917B0130917C012817390771F0D7
:1011300090937C0180937B01E0917F01F09180018D
:10114000309721F00084F185E02D099408950E94E4
:101150005215609387017093880180938901909361
:101160008A01609383017093840180938501909339
:101170008601089585B7806885BF85B7806885BF7B
:10118000089581E008950C94C10808950C94C50851
:101190000C94C5080C94C8080C94C5080C94CC0891
:1011A0000C94C5080E94BA0885E593E10E94A41535
:1011B0000E94D0080C94CE080E94C6080C94C50862
:1011C0000E943D150E948C050C94CA08EF92FF9274
:1011D0000F931F93CF93DF93CDB7DEB72A970FB648
:1011E000F894DEBF0FBECDBF0E94BA0581110E94E8
:1011F000A70880E00E947C05F82EE0908201E82696
:1012000089F48FEF89838A831B820E94461581604F
:10121000782F9D838C8349815A816B818D810E94B7
:1012200063092CC08091F60181FD0E94820500E0D7
:1012300011E08E2D8123E9F00E94C308882399F0E4
:101240000E831F82F12281E009F480E088870E94EA
:1012500046158160782F9A8789874E815F816885DE
:101260008A850E9463098091820118271093820168
:1012700005C00F5F110F0330E1F6C3CF0E94550880
:1012800090918101891791F00E9455088093810106
:101290002A960FB6F894DEBF0FBECDBFDF91CF9177
:1012A0001F910F91FF90EF900C9472032A960FB646
:1012B000F894DEBF0FBECDBFDF91CF911F910F918C
:1012C000FF90EF900895DF92EF92FF920F931F939C
:1012D000CF93DF93CDB7DEB72B970FB6F894DEBF71
:1012E0000FBECDBFF42E052F162FE72ED82E61117D
:1012F0000E94C312FE01319686E0DF011D928A959D
:10130000E9F77E2D4F2D502F612F8D2D9E810E944C
:10131000EC0F2B960FB6F894DEBF0FBECDBFDF915A
:10132000CF911F910F91FF90EF90DF900895FC01F6
:10133000808191810E9443120895CF93882309F4FC
:101340009CC0C82F8238C1F40E94550881FD95C009
:1013500069E380910001909101010E949C140E9418
:10136000E8122FEF81EE94E0215080409040E1F7A9
:1013700000C0000069E319C0833801F50E945508D8
:1013800080FD7BC063E580910001909101010E9486
:101390009C140E94E8122FEF81EE94E021508040CF
:1013A0009040E1F700C0000063E58091000190915A
:1013B00001010E94A714CF910C94E8128438C1F463
:1013C0000E94550882FD59C067E480910001909108
:1013D00001010E949C140E94E8122FEF81EE94E01C
:1013E000215080409040E1F700C0000067E4DDCF6D
:1013F0008CEF8C0F813AD0F46C2F8091000190918A
:1014000001010E941C14882349F06C2F8091000177
:10141000909101010E94A7140E94E8126C2F809104
:101420000001909101010E949C14C5CF80E28C0FB5
:10143000883048F4C77081E001C0880FCA95EAF788
:101440000E94A612B8CFEBE5EC0FE33040F4F0E0D9
:10145000E159FE4F808190E0CF910C947B08C85AEF
:10146000C73158F4EC2FF0E0EE0FFF1FEF5BFE4F9B
:1014700080819181CF910C949108CF910895882318
:1014800009F45BC0682F823879F40E94550881FF07
:1014900054C069E380910001909101010E949C1465
:1014A0000E94E81269E310C08338B1F40E94550825
:1014B00080FF43C063E580910001909101010E948B
:1014C0009C140E94E81263E5809100019091010153
:1014D0000E94A7140C94E812843879F40E945508ED
:1014E00082FF2BC067E480910001909101010E946E
:1014F0009C140E94E81267E4E7CF8CEF860F813AD4
:1015000018F380E2860F883048F4677081E001C0EC
:10151000880F6A95EAF70E94AC12DCCF8BE5860F44
:10152000833020F480E090E00C947B08685A6731A7
:1015300020F480E090E00C94910808951F93CF93DD
:10154000DF93182FEB010E949D09209741F08FE94E
:101550009FE00197F1F700C000002197F6CF812F9F
:10156000DF91CF911F910C943F0A893319F060E00D
:1015700070E002C060E570E00C949E0A882321F0C0
:101580000E94A6120C94E8120895882321F00E946C
:10159000AC120C94E8120895CF92DF92EF92FF9272
:1015A0000F931F93CF93DF937C01D62FC72FFC019E
:1015B0001281058102950F700E947B12882399F099
:1015C000112389F08C2F807F803421F080E28D0FF1
:1015D000883048F082E00E9438130E947B1291E02C
:1015E000D82ED92601C0D12CCC2EC2948FE0C8228F
:1015F0008C2D90E08C30910508F0ABC1FC01EA5ACB
:10160000FF4F0C945C1C8C2F807FCF70882311F0CF
:10161000C295C07F112399F0CC2309F486C180E2E2
:101620008D0F883010F0D11104C08C2F0E94A612AB
:1016300003C08C2F0E94B6120E94E81276C18D2F33
:101640000E943F0ACC2309F484C180E28D0F8830C8
:1016500010F0D11104C08C2F0E94AC1203C08C2F4B
:101660000E94BC120E94E81274C18C2F807FCF7040
:10167000803211F0C295C07FDD2319F0D130C9F05E
:1016800022C0112371F0002341F0013031F40E9497
:10169000C9128C2B0E94D1125CC10E94C9128C2BE2
:1016A0001DC0002319F0013009F453C10E94DE125D
:1016B00025C0112321F0063008F04BC10EC00530C3
:1016C00008F047C11BC0112361F0002331F0F7017E
:1016D000858180FF2AC18F7085838C2F0E94BE0A6E
:1016E00038C1002359F0D93309F030C1FFEF07EEBC
:1016F00013E0F15000401040E1F726C18C2F0E940A
:10170000C50A27C18C2F86958695837019F0813084
:1017100061F01FC1112321F08D2F9C2F937002C007
:1017200080E090E00E947B081CC1112321F08D2FE6
:101730009C2F937002C080E090E00E94910811C13C
:101740008C2F837009F047C0111107C12D2F2295EE
:1017500026952770220F220F6D2F6F70862F90E035
:10176000A0E0B0E0022E04C0880F991FAA1FBB1F83
:101770000A94D2F7D4FF10C04FE050E060E070E070
:1017800004C0440F551F661F771F2A95D2F7409556
:1017900050956095709503C040E050E0BA01C69541
:1017A000C695C3708A019B01082B192B2A2B3B2B52
:1017B000C901B801C23049F058F4C13019F00E9493
:1017C000C010CBC00E94AE10C8C00E94D210C5C0CD
:1017D0000E94AC10C2C0112319F08C2F817001C07F
:1017E0008695882309F4B9C02D2F22952695277058
:1017F000220F220F6D2F6F70862F90E0A0E0B0E0D7
:10180000022E04C0880F991FAA1FBB1F0A94D2F78B
:10181000D4FF10C04FE050E060E070E004C0440F1F
:10182000551F661F771F2A95D2F7409550956095F2
:10183000709503C040E050E0BA01C695C695C370EC
:101840008A019B01082B192B2A2B3B2BC901B801BC
:10185000C23049F058F4C13019F00E9485117DC0A2
:101860000E9473117AC00E94971177C00E94E610FF
:1018700074C0CF70112339F08C2F0E940C118D2F62
:101880000E94BE0A6AC08D2F0E94C50A8C2F0E943A
:101890002D1163C0D23F01F128F4D03F41F0D13F78
:1018A000A1F03FC0D33FF9F0D43F39F13AC0112342
:1018B00041F0053008F04DC08C2F8F710E945211FD
:1018C00048C0063008F045C0F7CF112339F08C2FFF
:1018D0008F710E940C113DC01123C9F38C2F8F71A1
:1018E0000E942D1136C0112329F08C2F8F710E9478
:1018F000F7102FC00E94F2102CC0112349F0CF71B5
:101900008C2F0E940C1163E08C2F0E941D1321C0AC
:1019100081E00E9438130230E0F082E00E94381328
:1019200018C0112331F0002391F28D2F0E949D09E0
:1019300010C0002399F2D93349F41FEF27EE33E0AA
:10194000115020403040E1F700C000008D2F0E9470
:101950003F0A88EF8C0D843020F40E9455080E94C5
:101960007203DD20C9F00E94771280FD15C0F701D7
:1019700012820E9471120E940C11C7010E94ED0C8C
:101980000E947112DF91CF911F910F91FF90EF9004
:10199000DF90CF900C942D11DF91CF911F910F917B
:1019A000FF90EF90DF90CF9008950F931F93CF9308
:1019B000DF93EC01688179818A810E944E128C014B
:1019C0000E94A9110E949A10B801CE010E94CC0A6F
:1019D000DF91CF911F910F910895CF93DF93EC0189
:1019E000988189812B813C81232B31F08F3F31F409
:1019F00081E09F3F19F403C081E001C080E080FDD9
:101A000019C0CE010E94430281110CC00E947B12BA
:101A1000882381F08A81882369F082E0DF91CF9169
:101A20000C943813CE010E94D50CCE01DF91CF91DA
:101A30000C942202DF91CF91089580E090E00E9403
:101A40007B0880E090E00E9491080E94C3120E94EF
:101A5000C6120C94E81280910001909101010E943D
:101A6000B2140C941D0D0E94B3120C942B0DE92F8F
:101A7000E295EF704E2F50E0FA013297EE30F1050B
:101A8000B0F4EE59FF4F0C945C1C803F91F018F4B9
:101A9000883E68F40EC0843F51F40BC0883E48F085
:101AA000813F29F406C093FB882780F9089580E0E0
:101AB000089581E008950E9443120E94370D089511
:101AC000CF93DF9300D000D01F92CDB7DEB70F9039
:101AD0000F900F900F900F90DF91CF910895CF93BB
:101AE000DF9300D000D000D0CDB7DEB726960FB67A
:101AF000F894DEBF0FBECDBFDF91CF9108951F9345
:101B0000CF93DF93C0918C0116E080918D01C817AF
:101B100099F0D0E01C9FF0011D9FF00D1124E257B9
:101B2000FE4F4081518162817381848195810E9441
:101B30006F0D2196C770E9CFDF91CF911F91089566
:101B40004091BE015091BF016091C0017091C101EF
:101B50008091C2019091C3010C946F0D0F931F935C
:101B6000CF93DF938091C30182958F7009F05DC0A0
:101B70008091C001882309F458C080918C01109194
:101B80008D016091BE017091BF01C091C101D091E2
:101B9000C20191E06F3F09F090E0292F06E0811724
:101BA00009F443C0209721F07F3F21F030E003C0CB
:101BB00031E001C0322F90E030FD34C0089FF001C9
:101BC000099FF00D1124DF01A257BE4F11963C91E1
:101BD0001197371327C03C91361324C012963C91BD
:101BE000129731111FC013964D915C9114974C1BA5
:101BF0005D0B483C5105B0F48091C3018F7080614A
:101C00008093C301ED56FE4F80818F708061808389
:101C10008EEB91E00E94ED0CDF91CF911F910F911F
:101C20000C947F0D01968770BACFDF91CF911F91F1
:101C30000F9108959F92AF92BF92CF92DF92EF9251
:101C4000FF920F931F93CF93DF93CDB7DEB76197CA
:101C50000FB6F894DEBF0FBECDBF8C0185E0F80152
:101C6000DE011D9601900D928A95E1F7F801408101
:101C70005181E2809091BE016091BF012091C1012C
:101C80003091C2012115310531F06F3F31F481E00F
:101C90009F3F19F403C081E001C080E0F82FF1708C
:101CA0009F2E80FD46C1F801A380B4808EEBC82E24
:101CB00081E0D82EF090C001F501E21BF30BFF206C
:101CC00009F4DFC08091C301E83CF10508F09BC036
:101CD000282F207F09F052C0561313C0491311C09A
:101CE000FE2CE1100EC08F7080618093C3010E94B2
:101CF000A00DC6010E94ED0C8091C301F8018583FF
:101D000058C1AB2831F05F3F31F481E04F3F19F407
:101D100003C081E001C080E080FD03C081E08E252A
:101D200002C080E090E0F82FF170FF2E80FF1CC011
:101D300080918C0120918D0136E0821709F417C142
:101D400090E0389FF001399FF00D1124E257FE4FCB
:101D50006181561306C06081461303C06281E6129A
:101D600003C001968770E9CFFE2CEE2009F421C153
:101D70008091C30181608093C3015AC0561306C08D
:101D8000491304C0E11002C0F8019FC04D875E876F
:101D90008D859E850E945B0D882379F1EE2069F187
:101DA0002091C301822F82958F7090E0029774F08A
:101DB0008091BE019091BF0198878F831986BB8661
:101DC000AA862C87CE0107960E94ED0C86E0F801CA
:101DD000AEEBB1E001900D928A95E1F70E94AE0D55
:101DE0000E94A00D0DC0561729F14D875E878D8585
:101DF0009E850E945B0D81112CC0C8010E94ED0CD4
:101E0000FF24F394D6C0282F207F69F77A2DB98A52
:101E1000A88A6E2D89890E94600D8EEB91E00E9448
:101E2000ED0C86E0F60111928A95E9F70E94A00D6B
:101E3000F12CBFC04913D9CFE110D7CFF80185836A
:101E4000C8010E94ED0C86E0F60111928A95E9F72F
:101E5000B0C0EE2091F22091C301822F82958F7045
:101E600090E002970CF4B2CF8091BE019091BF0137
:101E70009A8389831B82BD82AC822E83CE01019618
:101E8000A3CFE83CF10508F047C0FE2CEE2009F492
:101E9000B4CF561330C049132EC02091C30120FD8A
:101EA00021C0822F82958F70482F50E04115510537
:101EB000C9F0F80125834F30510541F08F5F982F0D
:101EC0009295907F822F8F70892B8583C8010E9405
:101ED000ED0C86E0F801AEEBB1E001900D928A9531
:101EE000E1F742C086E0F801AEEBB1E001900D925F
:101EF0008A95E1F75EC04D875E878D859E850E943D
:101F00005B0D811163CF8091C30181608093C30118
:101F1000C8010E94ED0C4DC07A2DB98AA88A6E2D99
:101F200089890E94600D86E0F60111928A95E9F791
:101F30001BC0EE2009F461CF4D875E878D859E859D
:101F40000E945B0DF82E882309F457CF86E0F80134
:101F5000AEEBB1E001900D928A95E1F78EEB91E046
:101F60000E9497090E94AE0D0E94A00D22C04D87CD
:101F70005E878D859E850E944312292F22952F70A2
:101F8000223028F49F7039F0811105C00BC0243035
:101F900028F49F7049F4805E883020F0C8010E94C8
:101FA000ED0C9F2CF92C05C0F8019581907F99F7D5
:101FB000F9CF8F2D61960FB6F894DEBF0FBECDBF5F
:101FC000DF91CF911F910F91FF90EF90DF90CF9015
:101FD000BF90AF909F9008951F93CF93DF93CDB79D
:101FE000DEB72C970FB6F894DEBF0FBECDBF4F8380
:101FF000588769877A878B879C87CE0107960E94CE
:102000001A0E8823D1F09F8188852A853B85232B52
:1020100031F08F3F31F481E09F3F19F403C081E03C
:1020200001C080E080FD47C04F81588569857A8571
:102030008B859C850E946F0D3EC086E0FE01379621
:10204000DE01119601900D928A95E1F7FF81E885F6
:102050006A857B856115710531F0EF3F31F481E0D0
:10206000FF3F19F403C081E001C080E080FD23C080
:1020700020918D0130E0C901019687709927409128
:102080008C0150E084179507F1F1F983EA837D8391
:102090006C8396E0929FD001939FB00D1124A257BC
:1020A000BE4FFE01319601900D929A95E1F7809313
:1020B0008D010E947F0D16E080918C0190918D0121
:1020C000891771F1189FC001112482579E4F0E94F9
:1020D0001A0E882329F1E0918C011E9FF001112432
:1020E000E257FE4F408151816281738184819581E5
:1020F0000E946F0D80918C0190E001968770992766
:1021000080938C01D9CF0E94330D10928D011092D3
:102110008C01EEEBF1E086E0DF011D928A95E9F794
:102120002C960FB6F894DEBF0FBECDBFDF91CF91D6
:102130001F910895089508950C949B100C949C1081
:102140000E949E106093CD017093CE018093CF01C9
:102150009093D0010C941D0D0C94A0100F931F931D
:102160000091CD011091CE012091CF013091D0018D
:10217000602B712B822B932B1F910F910C94A0102D
:102180000F931F930091CD011091CE012091CF01AB
:102190003091D00160237123822393231F910F91EB
:1021A0000C94A0100F931F930091CD011091CE01BC
:1021B0002091CF013091D00160277127822793278A
:1021C0001F910F910C94A0100C949B100E94E4108E
:1021D0006093C9017093CA018093CB019093CC01A5
:1021E0000C941D0D60E070E0CB010C94E6100F9391
:1021F0001F9341E050E060E070E08A019B0104C061
:10220000000F111F221F331F8A95D2F7C901B80191
:102210001F910F910C94E6100F931F9341E050E033
:1022200060E070E004C0440F551F661F771F8A9559
:10223000D2F78091C9019091CA01A091CB01B091D0
:10224000CC018A019B01082B192B2A2B3B2BC9019E
:10225000B8011F910F910C94E6100F931F9341E06A
:1022600050E060E070E004C0440F551F661F771F08
:102270008A95D2F740955095609570958091C901E7
:102280009091CA01A091CB01B091CC018A019B0130
:10229000082319232A233B23C901B8011F910F9159
:1022A0000C94E6100F931F9341E050E060E070E063
:1022B00004C0440F551F661F771F8A95D2F780917F
:1022C000C9019091CA01A091CB01B091CC018A01C2
:1022D0009B01082719272A273B27C901B8011F910D
:1022E0000F910C94E6100F931F930091C901109168
:1022F000CA012091CB013091CC01602B712B822B34
:10230000932B1F910F910C94E6100F931F93009144
:10231000C9011091CA012091CB013091CC016023F9
:102320007123822393231F910F910C94E6100F9336
:102330001F930091C9011091CA012091CB013091E6
:10234000CC0160277127822793271F910F910C944E
:10235000E6100895292F220F920F890FE82FE69596
:10236000E695E695877051E001C0550F8A95EAF72A
:1023700085E0E89FF0011124EC53FE4F20E030E0AF
:1023800070E04081CB01022E02C0969587950A9499
:10239000E2F78170819584278523842781932F5FBD
:1023A0003F4F2530310569F70895292F220F920FED
:1023B000890F682F669566956695982F977085E0CA
:1023C000689FB001112440E050E080E0FB01E40F81
:1023D000F51FEC53FE4F208130E0092E02C03695E8
:1023E00027950A94E2F721703327042E01C0220FAB
:1023F0000A94EAF7822B4F5F5F4F4530510531F762
:102400000895BF92CF92DF92EF92FF920F931F93A6
:10241000CF93DF938C01C090C901D090CA01E090A6
:10242000CB01F090CC018091CD019091CE01A09193
:10243000CF01B091D001C82AD92AEA2AFB2ACFE1DC
:10244000D0E0D701C6010C2E04C0B695A79597958C
:1024500087950A94D2F780FD04C0219790F7B12C9C
:1024600007C0BC2EB8018C2F0E948F030197A9F3DF
:102470008B2DDF91CF911F910F91FF90EF90DF9007
:10248000CF90BF900895CF93DF93EC010E9401128B
:10249000BE010E948F03DF91CF9108951F93CF93C8
:1024A000DF93EB0190918B01992321F0CB010E94E6
:1024B000431213C0882349F0CB010E940112182F48
:1024C000682FCE010E94AA1104C0CB010E94D51131
:1024D000182FBE01812F0E948F03DF91CF911F9192
:1024E00008958091D1018595859585950895809170
:1024F000D101877008959091D101977081E009F41E
:1025000080E0089590911B0292FB222720F9281762
:1025100051F080FB92F990931B0280911A029091E6
:102520001B020C947B13089580911B0282FB882769
:1025300080F991E089270C94821281E00C94821238
:1025400080E00C9482128091F50108959091F5013C
:10255000892B8093F501089580959091F501892349
:102560008093F50108951092F50108959091F4017A
:10257000892B8093F401089580959091F40189232B
:102580008093F40108951092F40108951092F301DC
:1025900008958091D201089508950C94CC120C9462
:1025A000CD1290911B0292FD08C09091D201981714
:1025B00021F08093D2010C94CF1208958091D20122
:1025C000882329F01092D20180E00C94CF12089554
:1025D000E0910001F09101018091F5018083E0918B
:1025E0000001F091010190818091F401892B808399
:1025F000E0910001F091010190818091F301892B1C
:1026000080838091D201882381F0E0910001F091D4
:1026100001019081892B80838091000190910101BB
:102620000E94061481110E94DE1280910001909197
:1026300001010C9461080C94CC1290911B0292FD44
:1026400010C098E0899F90011124262B2093D1017E
:102650000E940C118091D1018595859585950C94EA
:102660001B130C940C111092D10180E00C941B13DD
:102670002091D101809582238093D101982F97706A
:1026800041F430E0482F082E000C550B2417350775
:1026900021F490911B0292FF07C085958595859541
:1026A0000E942D110C943313089580E0089580E06A
:1026B00090E00E946A1C21E08A3E9E4F09F020E0D3
:1026C000822F089582E090E00C94621C83E090E0F9
:1026D0000C94621CCF9384E090E00E94621CC82F8F
:1026E00082E290E00E94621C2C2F30E0A901582B5E
:1026F000CA01CF910895CF93C92F682F84E090E04D
:102700000E94701C6C2F82E290E0CF910C94701CA0
:10271000AB01BC018FE090E00C94821CAB01BC01CA
:1027200083E190E00C94821C60E070E0CB010C949B
:102730008E1360E070E0CB010E9488130C94941318
:102740006AEE7EEF80E090E00E948E1C60E082E006
:1027500090E00E94701C60E083E090E00E94701C9A
:102760001092CD011092CE011092CF011092D001A3
:1027700060E084E090E00E94701C60E082E290E003
:102780000E94701C60E085E090E00E94701C60E098
:1027900086E090E00E94701C6FEF87E090E00E945E
:1027A000701C40E050E0BA0188E090E00E94821C7A
:1027B00060E08DE090E00E94701C40E050E0BA01C3
:1027C00088E190E00E94821C60E087E190E00E9436
:1027D000701C40E050E0BA018CE190E00E94821C45
:1027E00060E070E080E290E00E948E1C40E050E0EB
:1027F000BA0188E190E00E94821C0C9499130C9419
:10280000A013682F8EE090E00C94701CFC013296AF
:1028100080910C01882331F080911A0287FF02C059
:102820009EE101C096E080E0915028F021912223A2
:10283000D9F38F5FF9CF0895662351F120910C01F0
:102840002223E9F020911A0227FF19C0462F46954E
:10285000469546954E31E0F4677021E030E002C0C5
:10286000220F331F6A95E2F7FC01E40FF11D82810C
:1028700090E02823392381E0232B69F409C0FC016F
:10288000329608962191621729F0E817F907D1F7D7
:1028900080E0089581E008959C01FC0132969FEF4D
:1028A00080E04191461789F09F3F19F4411101C022
:1028B000982F8F5F8630A9F79F3F39F0F901E90F14
:1028C000F11D97FDFA956283089508959C012A5F92
:1028D0003F4FFC014281461301C0128201968217CC
:1028E0009307B9F70895262F2695269526952E311C
:1028F00068F4FC01E20FF11D677021E030E001C0D7
:10290000220F6A95EAF78281282B22830895262FC9
:102910002695269526952E3170F4FC01E20FF11DC7
:10292000677021E030E001C0220F6A95EAF7209538
:10293000828128232283089520910C01222329F0EB
:1029400020911A0227FD0C9473140C944C142091BE
:102950000C01222329F020911A0227FD0C948714E0
:102960000C94661420910C01FC013296222331F064
:1029700080911A0287FF02C08EE101C086E0DF016C
:102980001D928A95E9F7089508950C94C4140C9447
:10299000C4140E94C7140E94BA050E94C51480E0A6
:1029A0000E947C0591E0811101C090E0892F08957B
:1029B0000C94C4140C94D81480912602843049F1EC
:1029C0000E94DA1480E00E9472031092F70120E462
:1029D00088E190E00FB6F894A895809360000FBE50
:1029E0002093600083B7817F846083BF83B7816059
:1029F00083BF7894889583B78E7F83BF0FB6F89492
:102A0000A8958091600088618093600010926000BA
:102A10000FBE08950C94C4140E94330D0E945508F3
:102A20000E9472030C940A151F920F920FB60F9218
:102A300011248F939F93AF93BF938091F7018111DE
:102A400013C080911E0290911F02A0912002B091AC
:102A500021024196A11DB11D80931E0290931F0279
:102A6000A0932002B0932102BF91AF919F918F91CB
:102A70000F900FBE0F901F90189582E084BD93E0D9
:102A800095BD9AEF97BD80936E0008952FB7F89487
:102A900080911E0290911F02A0912002B09121020C
:102AA0002FBF08952FB7F89460911E0270911F02F6
:102AB00080912002909121022FBF08959C014FB771
:102AC000F89480911E0290911F02A0912002B09173
:102AD00021024FBF821B930B089578941F920F928F
:102AE0000FB60F9211248F939F93AF93BF93809152
:102AF0001E0290911F02A0912002B0912102019626
:102B0000A11DB11D80931E0290931F02A09320026D
:102B1000B0932102BF91AF919F918F910F900FBE03
:102B20000F901F90189587E797E79093010880937F
:102B300000089AE088E10FB6F894A89580936000A9
:102B40000FBE90936000FFCF90937301809372014A
:102B500008958091180208950895CF93DF9300D0CF
:102B60001F92CDB7DEB790912602943019F5898374
:102B70007B836A8382E08093E9008FEF9091E80085
:102B8000815095FD06C095ED9A95F1F700008111F1
:102B9000F5CF8091E80085FF0DC040E050E063E094
:102BA00070E0CE0101960E94BE178091E8008E77FA
:102BB0008093E8000F900F900F90DF91CF910895D0
:102BC000BC0184E00C94AD15BC0183E00C94AD1500
:102BD000CF93DF9320910C01222339F020911A0228
:102BE00027FF03C060E222E002C068E021E02093FA
:102BF000E9002FEF3091E800215035FD06C035ED9A
:102C00003A95F1F700002111F5CF2091E80025FF5A
:102C10001DC0EC0180910C01811105C040E050E025
:102C200068E070E003C070E040E050E0CE010E9438
:102C3000BE178091E8008E778093E80080E2FE0165
:102C4000A8EFB1E001900D928A95E1F7DF91CF9165
:102C5000089580912502811109C00E944F190E9498
:102C6000AC198091E20084608093E2000895109294
:102C70002502089508950895089542E061EC81E0E9
:102C80000E94C81842E261EC82E00C94C81880915E
:102C90002802833009F460C030F4813071F0823052
:102CA00009F499C008958A3009F485C08B3009F47D
:102CB0006BC0893009F0A7C020C080912702813AFB
:102CC00009F0A1C08091E800877F8093E80080919F
:102CD0002B0290912C02892B21F460E288EF91E085
:102CE00003C060E080E090E070E00E9409188091ED
:102CF000E8008B778093E800089580912702813265
:102D000009F081C080912B0290912C02029708F06B
:102D10007AC08091E800877F8093E8008091E80086
:102D200082FD05C0809126028111F8CF6CC02091F0
:102D3000F3008091F20090E0922B029729F48091A9
:102D4000F1008B7F813021F48091F1008093180293
:102D50008091E8008B7753C080912702813A09F077
:102D600052C080912B0290912C02892B09F04BC00C
:102D70008091E800877F8093E8008091E80080FFE1
:102D8000FCCF80910C0136C0809127028132D9F5A9
:102D900080912B0290912C02892BA9F58091E8005B
:102DA000877F8093E8000E94FD188091290280931C
:102DB0000C010C94330D80912702813221F5809112
:102DC000E800877F8093E8000E94FD1880912A0226
:102DD00080931902089580912702813AA1F480918D
:102DE000E800877F8093E8008091E80080FFFCCFB7
:102DF000809119028093F1008091E8008E77809392
:102E0000E8000C94FD18089584B7877F84BF0FB63F
:102E1000F894A8958091600088618093600010927A
:102E200060000FBE90E080E80FB6F89480936100D8
:102E3000909361000FBE0E94D2080E944F190E9419
:102E4000AC198091E20084608093E20078940E9443
:102E5000411C0E94E00882E091E00E9450088091AD
:102E600026028530A9F480912602853079F40E94EB
:102E7000DC14809124028823B1F30E94C9148823B2
:102E800091F30E94A8170E94330DEDCF0E940C15FC
:102E90000E94E6080E94DC08E2CF0C944F17292F0D
:102EA000332723303105C9F060F42130310581F03A
:102EB0002230310509F044C08BE390E028E132E094
:102EC00043C021323105E1F02232310549F138C0E9
:102ED00082E190E023E532E037C099278130910507
:102EE00049F028F0029761F5ECEDF1E005C0E4E16E
:102EF000F2E002C0E2EFF1E0849190E09F0124C093
:102F00006115710541F061307105D1F489E090E0FF
:102F100023E432E019C089E090E02AE232E014C0F4
:102F20006115710541F06130710551F48DE690E055
:102F300025E632E009C080E490E022ED32E004C0F2
:102F400080E090E020E030E0FA01318320830895B2
:102F500080E189BD82E189BD09B400FEFDCF809189
:102F6000D8008F7D8093D8008091E00082608093AC
:102F7000E0008091E00081FDFCCF0895CF92DF92C8
:102F8000EF92FF920F931F93CF93DF93EC018B018E
:102F90007A010E941C19811133C0E114F10439F047
:102FA000F70180819181081B190BC80FD91FC12C13
:102FB000D12C0115110519F18091E80085FD16C08D
:102FC0008091E8008E778093E800E114F10449F0E5
:102FD000F70180819181C80ED91ED182C08285E01F
:102FE0000FC00E941C19882321F30AC08991809385
:102FF000F10001501109FFEFCF1ADF0ADACF80E0AC
:10300000DF91CF911F910F91FF90EF90DF90CF90C4
:10301000089520912D0230912E022617370748F08F
:103020006115710539F42091E8002E772093E800AE
:1030300001C0B901FC0120E06115710579F18091B1
:1030400026028823F1F18530F1F18091E80083FDBB
:103050003CC08091E80082FD2EC08091E80080FF96
:10306000EBCF2091F3008091F20090E0922B61155C
:10307000710551F08830910538F421912093F100C9
:10308000615071090196F3CF21E0089709F020E023
:103090008091E8008E778093E800CECF2111CFCFCA
:1030A0000AC080912602882361F0853061F080910A
:1030B000E80083FD0AC08091E80082FFF2CF80E043
:1030C000089582E0089583E0089581E008952091B5
:1030D0002D0230912E022617370748F06115710531
:1030E00039F42091E8002E772093E80001C0B9015F
:1030F000FC0120E06115710591F180912602882381
:1031000009F440C0853009F43FC08091E80083FD98
:103110003DC08091E80082FD2FC08091E80080FFD3
:10312000E9CF2091F3008091F20090E0922B61159D
:10313000710559F08830910540F424912093F100F5
:103140003196615071090196F2CF21E0089709F09C
:1031500020E08091E8008E778093E800CBCF2111AA
:10316000CCCF0AC080912602882361F0853061F0BF
:103170008091E80083FD0AC08091E80082FFF2CFD1
:1031800080E0089582E0089583E0089581E0089545
:10319000982F973068F59093E900981739F070915F
:1031A000EC002091ED005091F00003C0242F762F09
:1031B00050E021FD02C09F5FECCF3091EB003E7FDD
:1031C0003093EB003091ED003D7F3093ED00309176
:1031D000EB0031603093EB007093EC002093ED0036
:1031E0005093F0002091EE0027FDE5CF80E0089598
:1031F0008F708093E90081E008958091270287FF16
:1032000011C08091E80082FD05C0809126028111E5
:10321000F8CF11C08091E8008B770BC08091260217
:10322000882349F08091E80080FFF8CF8091E80082
:103230008E778093E80008952091E4003091E500B6
:1032400095E64091EC00842F817040FF23C080916F
:10325000E80080FD1DC080912602882399F085300A
:1032600099F08091EB0085FD11C04091E4005091F0
:10327000E5002417350729F3915011F09A01E1CFA9
:1032800084E0089582E0089583E0089581E0089540
:1032900080E008954091E80042FFDDCF08950E944C
:1032A000BD190E94C519E0EEF0E080818160808345
:1032B000E8EDF0E080818F77808319BCA7EDB0E066
:1032C0008C918E7F8C9380818F7E808310922502DB
:1032D00008950F931F93CF93DF930E94BD190E940F
:1032E000C519C8EDD0E088818F7788838881806890
:1032F000888388818F7D888319BC10922602109262
:103300002202109224021092230200EE10E0F80133
:1033100080818B7F808388818160888342E060E048
:1033200080E00E94C818E1EEF0E080818E7F80830B
:10333000E2EEF0E08081816080838081886080831C
:10334000F80180818E7F8083888180618883DF910E
:10335000CF911F910F910895E8EDF0E080818F7E6D
:103360008083E7EDF0E080818160808384E082BF2C
:1033700081E0809325020C946919E8EDF0E08081EA
:103380008E7F80831092E20008951092DA001092EE
:10339000E10008951F920F920FB60F9211242F9300
:1033A0003F934F935F936F937F938F939F93AF93CD
:1033B000BF93EF93FF938091E10082FF0BC0809158
:1033C000E20082FF07C08091E1008B7F8093E100E3
:1033D0000E94401C8091DA0080FF1FC08091D800BD
:1033E00080FF1BC08091DA008E7F8093DA0080918D
:1033F000D90080FF0DC080E189BD82E189BD09B49B
:1034000000FEFDCF81E0809326020E94291605C0B0
:1034100019BC109226020E9437168091E10080FFAD
:1034200019C08091E20080FF15C08091E2008E7F7C
:103430008093E2008091E20080618093E2008091BD
:10344000D80080628093D80019BC85E08093260262
:103450000E943B168091E10084FF30C08091E20021
:1034600084FF2CC080E189BD82E189BD09B400FEE2
:10347000FDCF8091D8008F7D8093D8008091E100AE
:103480008F7E8093E1008091E2008F7E8093E20046
:103490008091E20081608093E20080912202882383
:1034A00011F084E007C08091E30087FD02C081E055
:1034B00001C083E0809326020E943C168091E100C7
:1034C00083FF29C08091E20083FF25C08091E10045
:1034D000877F8093E10082E080932602109222028F
:1034E0008091E1008E7F8093E1008091E2008E7FE9
:1034F0008093E2008091E20080618093E20042E0EC
:1035000060E080E00E94C8188091F000886080939D
:10351000F0000E943A16FF91EF91BF91AF919F91F9
:103520008F917F916F915F914F913F912F910F906C
:103530000FBE0F901F9018951F920F920FB60F920B
:1035400011242F933F934F935F936F937F938F93A8
:103550009F93AF93BF93CF93DF93EF93FF93C0916C
:10356000E900CF708091EC00D82FD17080FDD0E8B9
:103570001092E9008091F000877F8093F0007894AA
:103580000E94E01A1092E9008091F0008860809318
:10359000F000CD2BCF70C093E900FF91EF91DF9148
:1035A000CF91BF91AF919F918F917F916F915F91DB
:1035B0004F913F912F910F900FBE0F901F90189534
:1035C0001F93CF93DF93CDB7DEB7AA970FB6F894CA
:1035D000DEBF0FBECDBFE7E2F2E08091F100819344
:1035E00022E0EF32F207C9F70E9447168091E80007
:1035F00083FF2EC18091270290912802492F50E02D
:103600004A30510508F024C1FA01E059FF4F0C94EB
:103610005C1C803821F0823809F01AC108C0809102
:10362000230290912402992389F082600FC0809137
:103630002B028F70873008F00BC18093E9008091D6
:10364000EB0085FB882780F91092E9009091E80053
:10365000977F9093E8008093F1001092F100D1C021
:10366000282F2D7F09F0F4C0882319F0823061F0F3
:10367000EFC080912902813009F0EAC0933009F04F
:1036800080E0809324022EC08091290281112AC0FB
:1036900080912B028F702FEF280F263008F0D8C0B2
:1036A0008093E9002091EB0020FF1CC0933021F4AF
:1036B0008091EB00806214C09091EB009061909338
:1036C000EB0021E030E0A90102C0440F551F8A95AC
:1036D000E2F74093EA001092EA008091EB008860E4
:1036E0008093EB001092E9008091E800877F80933F
:1036F000E8000E94FD18ACC08111AAC010912902F7
:103700001F778091E3008078812B8093E300809184
:10371000E800877F8093E8000E94FD188091E80010
:1037200080FFFCCF8091E30080688093E30011115B
:1037300002C082E001C083E08093260289C08058E5
:10374000823008F085C08091290290912A028C3D38
:1037500053E0950779F583E08A838AE289834FB73E
:10376000F894DE01139620E03EE051E2E32FF0E012
:1037700050935700E49120FF03C0E295EF703F5F44
:10378000EF708E2F90E0EA3010F0C79601C0C0961F
:103790008D939D932F5F243149F74FBF8091E800AF
:1037A000877F8093E8006AE270E0CE0101960E9474
:1037B000091816C060912B0270912C02AE014F5F68
:1037C0005F4F0E944D17BC01892B09F441C09091B5
:1037D000E800977F9093E80089819A810E9467189A
:1037E0008091E8008B778093E80032C0803881F5C3
:1037F0008091E800877F8093E80080912202809387
:10380000F1008091E8008E7772CF811121C0809104
:10381000290290912A0299270297D4F48091E80016
:10382000877F8093E80080912902809322020E9482
:10383000FD1880912202811106C08091E30087FD6E
:1038400002C081E001C084E0809326020E943D1600
:103850008091E80083FF0AC08091E800877F809311
:10386000E8008091EB0080628093EB00AA960FB68F
:10387000F894DEBF0FBECDBFDF91CF911F910895A9
:103880000895CF93809126028823A1F0C091E9008A
:10389000CF709091EC00892F817090FD80E8C82B4B
:1038A0001092E9008091E80083FD0E94E01ACF7039
:1038B000C093E900CF910895EE0FFF1F0590F4919A
:1038C000E02D0994F999FECF92BD81BDF89A992710
:1038D00080B50895A8E1B0E042E050E00C94961C59
:1038E000262FF999FECF92BD81BDF89A019700B4B9
:1038F000021639F01FBA20BD0FB6F894FA9AF99A59
:103900000FBE08950396272F0E94711C0E94701C01
:10391000252F0E94711C242F0C94711C0196272FB7
:103920000E94711C0C94701CDC01CB01FC01F99904
:10393000FECF06C0F2BDE1BDF89A319600B40D92FB
:0C39400041505040B8F70895F894FFCFB4
:10394C00D301A915E815AC15E415E01501E200E961
:10395C0000EA00B500B600B700CD008301CC008AA8
:10396C00019201940121022302240225022602273E
:10397C00022A02B300B4006F007000818283919020
:10398C0094E200E900EA00B500B600B700CD008370
:10399C0001CC008A01920194012102230224022508
:1039AC0002260227022A02B300B4006F00700081C5
:0239BC00828304
:00000001FF
